{
  "contractName": "AuctionContract",
  "abi": [
    {
      "anonymous": false,
      "inputs": [
        {
          "indexed": false,
          "internalType": "address",
          "name": "_owner",
          "type": "address"
        },
        {
          "indexed": false,
          "internalType": "uint256",
          "name": "_auctionId",
          "type": "uint256"
        }
      ],
      "name": "AuctionCanceled",
      "type": "event"
    },
    {
      "anonymous": false,
      "inputs": [
        {
          "indexed": false,
          "internalType": "address",
          "name": "_owner",
          "type": "address"
        },
        {
          "indexed": false,
          "internalType": "uint256",
          "name": "_auctionId",
          "type": "uint256"
        }
      ],
      "name": "AuctionCreated",
      "type": "event"
    },
    {
      "anonymous": false,
      "inputs": [
        {
          "indexed": false,
          "internalType": "address",
          "name": "_owner",
          "type": "address"
        },
        {
          "indexed": false,
          "internalType": "uint256",
          "name": "_auctionId",
          "type": "uint256"
        }
      ],
      "name": "AuctionFinalized",
      "type": "event"
    },
    {
      "anonymous": false,
      "inputs": [
        {
          "indexed": false,
          "internalType": "address",
          "name": "_from",
          "type": "address"
        },
        {
          "indexed": false,
          "internalType": "uint256",
          "name": "_auctionId",
          "type": "uint256"
        }
      ],
      "name": "BidSuccess",
      "type": "event"
    },
    {
      "inputs": [
        {
          "internalType": "uint256",
          "name": "",
          "type": "uint256"
        },
        {
          "internalType": "uint256",
          "name": "",
          "type": "uint256"
        }
      ],
      "name": "auctionBids",
      "outputs": [
        {
          "internalType": "address payable",
          "name": "from",
          "type": "address"
        },
        {
          "internalType": "uint256",
          "name": "amount",
          "type": "uint256"
        }
      ],
      "stateMutability": "view",
      "type": "function",
      "constant": true
    },
    {
      "inputs": [
        {
          "internalType": "address",
          "name": "",
          "type": "address"
        },
        {
          "internalType": "uint256",
          "name": "",
          "type": "uint256"
        }
      ],
      "name": "auctionOwner",
      "outputs": [
        {
          "internalType": "uint256",
          "name": "",
          "type": "uint256"
        }
      ],
      "stateMutability": "view",
      "type": "function",
      "constant": true
    },
    {
      "inputs": [
        {
          "internalType": "uint256",
          "name": "",
          "type": "uint256"
        }
      ],
      "name": "auctions",
      "outputs": [
        {
          "internalType": "string",
          "name": "name",
          "type": "string"
        },
        {
          "internalType": "uint256",
          "name": "blockDeadline",
          "type": "uint256"
        },
        {
          "internalType": "uint256",
          "name": "startPrice",
          "type": "uint256"
        },
        {
          "internalType": "string",
          "name": "metadata",
          "type": "string"
        },
        {
          "internalType": "uint256",
          "name": "deedId",
          "type": "uint256"
        },
        {
          "internalType": "address",
          "name": "deedAddress",
          "type": "address"
        },
        {
          "internalType": "address payable",
          "name": "owner",
          "type": "address"
        },
        {
          "internalType": "bool",
          "name": "active",
          "type": "bool"
        },
        {
          "internalType": "bool",
          "name": "finalized",
          "type": "bool"
        }
      ],
      "stateMutability": "view",
      "type": "function",
      "constant": true
    },
    {
      "stateMutability": "payable",
      "type": "receive",
      "payable": true
    },
    {
      "inputs": [],
      "name": "getCount",
      "outputs": [
        {
          "internalType": "uint256",
          "name": "",
          "type": "uint256"
        }
      ],
      "stateMutability": "view",
      "type": "function",
      "constant": true
    },
    {
      "inputs": [
        {
          "internalType": "uint256",
          "name": "_auctionId",
          "type": "uint256"
        }
      ],
      "name": "getBidsCount",
      "outputs": [
        {
          "internalType": "uint256",
          "name": "",
          "type": "uint256"
        }
      ],
      "stateMutability": "view",
      "type": "function",
      "constant": true
    },
    {
      "inputs": [
        {
          "internalType": "address",
          "name": "_owner",
          "type": "address"
        }
      ],
      "name": "getAuctionsOf",
      "outputs": [
        {
          "internalType": "uint256[]",
          "name": "",
          "type": "uint256[]"
        }
      ],
      "stateMutability": "view",
      "type": "function",
      "constant": true
    },
    {
      "inputs": [
        {
          "internalType": "uint256",
          "name": "_auctionId",
          "type": "uint256"
        }
      ],
      "name": "getCurrentBid",
      "outputs": [
        {
          "internalType": "uint256",
          "name": "",
          "type": "uint256"
        },
        {
          "internalType": "address",
          "name": "",
          "type": "address"
        }
      ],
      "stateMutability": "view",
      "type": "function",
      "constant": true
    },
    {
      "inputs": [
        {
          "internalType": "address",
          "name": "_owner",
          "type": "address"
        }
      ],
      "name": "getAuctionsCountOfOwner",
      "outputs": [
        {
          "internalType": "uint256",
          "name": "",
          "type": "uint256"
        }
      ],
      "stateMutability": "view",
      "type": "function",
      "constant": true
    },
    {
      "inputs": [
        {
          "internalType": "uint256",
          "name": "_auctionId",
          "type": "uint256"
        }
      ],
      "name": "getAuctionById",
      "outputs": [
        {
          "internalType": "string",
          "name": "name",
          "type": "string"
        },
        {
          "internalType": "uint256",
          "name": "blockDeadline",
          "type": "uint256"
        },
        {
          "internalType": "uint256",
          "name": "startPrice",
          "type": "uint256"
        },
        {
          "internalType": "string",
          "name": "metadata",
          "type": "string"
        },
        {
          "internalType": "uint256",
          "name": "deedId",
          "type": "uint256"
        },
        {
          "internalType": "address",
          "name": "deedAddress",
          "type": "address"
        },
        {
          "internalType": "address payable",
          "name": "owner",
          "type": "address"
        },
        {
          "internalType": "bool",
          "name": "active",
          "type": "bool"
        },
        {
          "internalType": "bool",
          "name": "finalized",
          "type": "bool"
        }
      ],
      "stateMutability": "view",
      "type": "function",
      "constant": true
    },
    {
      "inputs": [
        {
          "internalType": "address",
          "name": "_deedAddress",
          "type": "address"
        },
        {
          "internalType": "uint256",
          "name": "_deedId",
          "type": "uint256"
        },
        {
          "internalType": "string",
          "name": "_auctionTitle",
          "type": "string"
        },
        {
          "internalType": "string",
          "name": "_metadata",
          "type": "string"
        },
        {
          "internalType": "uint256",
          "name": "_startPrice",
          "type": "uint256"
        },
        {
          "internalType": "uint256",
          "name": "_blockDeadline",
          "type": "uint256"
        }
      ],
      "name": "createAuction",
      "outputs": [
        {
          "internalType": "bool",
          "name": "",
          "type": "bool"
        }
      ],
      "stateMutability": "nonpayable",
      "type": "function"
    },
    {
      "inputs": [
        {
          "internalType": "uint256",
          "name": "_auctionId",
          "type": "uint256"
        }
      ],
      "name": "cancelAuction",
      "outputs": [],
      "stateMutability": "nonpayable",
      "type": "function"
    },
    {
      "inputs": [
        {
          "internalType": "uint256",
          "name": "_auctionId",
          "type": "uint256"
        }
      ],
      "name": "finalizeAuction",
      "outputs": [],
      "stateMutability": "payable",
      "type": "function",
      "payable": true
    },
    {
      "inputs": [
        {
          "internalType": "uint256",
          "name": "_auctionId",
          "type": "uint256"
        }
      ],
      "name": "bidOnAuction",
      "outputs": [],
      "stateMutability": "payable",
      "type": "function",
      "payable": true
    }
  ],
  "bytecode": "0x608060405234801561001057600080fd5b506126d7806100206000396000f3fe6080604052600436106100e3576000357c010000000000000000000000000000000000000000000000000000000090048063a87d942c1161009c578063d56aa55811610076578063d56aa558146106d8578063da4e364f1461073d578063e1b96581146107bf578063e808386314610974576100ed565b8063a87d942c14610598578063b1b61bfa146105c3578063c8756cda14610669576100ed565b806318111ada146100f257806326b7aeea146102a35780634008f9c0146102d1578063571a26a0146103205780635f93de49146104d157806396b5a7551461055d576100ed565b366100ed57600080fd5b600080fd5b3480156100fe57600080fd5b5061012b6004803603602081101561011557600080fd5b81019080803590602001909291905050506109a2565b60405180806020018a8152602001898152602001806020018881526020018773ffffffffffffffffffffffffffffffffffffffff1673ffffffffffffffffffffffffffffffffffffffff1681526020018673ffffffffffffffffffffffffffffffffffffffff1673ffffffffffffffffffffffffffffffffffffffff168152602001851515151581526020018415151515815260200183810383528c818151815260200191508051906020019080838360005b838110156101f95780820151818401526020810190506101de565b50505050905090810190601f1680156102265780820380516001836020036101000a031916815260200191505b50838103825289818151815260200191508051906020019080838360005b8381101561025f578082015181840152602081019050610244565b50505050905090810190601f16801561028c5780820380516001836020036101000a031916815260200191505b509b50505050505050505050505060405180910390f35b6102cf600480360360208110156102b957600080fd5b8101908080359060200190929190505050610c7a565b005b3480156102dd57600080fd5b5061030a600480360360208110156102f457600080fd5b81019080803590602001909291905050506111c6565b6040518082815260200191505060405180910390f35b34801561032c57600080fd5b506103596004803603602081101561034357600080fd5b81019080803590602001909291905050506111e6565b60405180806020018a8152602001898152602001806020018881526020018773ffffffffffffffffffffffffffffffffffffffff1673ffffffffffffffffffffffffffffffffffffffff1681526020018673ffffffffffffffffffffffffffffffffffffffff1673ffffffffffffffffffffffffffffffffffffffff168152602001851515151581526020018415151515815260200183810383528c818151815260200191508051906020019080838360005b8381101561042757808201518184015260208101905061040c565b50505050905090810190601f1680156104545780820380516001836020036101000a031916815260200191505b50838103825289818151815260200191508051906020019080838360005b8381101561048d578082015181840152602081019050610472565b50505050905090810190601f1680156104ba5780820380516001836020036101000a031916815260200191505b509b50505050505050505050505060405180910390f35b3480156104dd57600080fd5b50610514600480360360408110156104f457600080fd5b8101908080359060200190929190803590602001909291905050506113cb565b604051808373ffffffffffffffffffffffffffffffffffffffff1673ffffffffffffffffffffffffffffffffffffffff1681526020018281526020019250505060405180910390f35b34801561056957600080fd5b506105966004803603602081101561058057600080fd5b8101908080359060200190929190505050611429565b005b3480156105a457600080fd5b506105ad6118ea565b6040518082815260200191505060405180910390f35b3480156105cf57600080fd5b50610612600480360360208110156105e657600080fd5b81019080803573ffffffffffffffffffffffffffffffffffffffff1690602001909291905050506118f6565b6040518080602001828103825283818151815260200191508051906020019060200280838360005b8381101561065557808201518184015260208101905061063a565b505050509050019250505060405180910390f35b34801561067557600080fd5b506106c26004803603604081101561068c57600080fd5b81019080803573ffffffffffffffffffffffffffffffffffffffff16906020019092919080359060200190929190505050611992565b6040518082815260200191505060405180910390f35b3480156106e457600080fd5b50610727600480360360208110156106fb57600080fd5b81019080803573ffffffffffffffffffffffffffffffffffffffff1690602001909291905050506119c0565b6040518082815260200191505060405180910390f35b34801561074957600080fd5b506107766004803603602081101561076057600080fd5b8101908080359060200190929190505050611a0c565b604051808381526020018273ffffffffffffffffffffffffffffffffffffffff1673ffffffffffffffffffffffffffffffffffffffff1681526020019250505060405180910390f35b3480156107cb57600080fd5b5061095a600480360360c08110156107e257600080fd5b81019080803573ffffffffffffffffffffffffffffffffffffffff169060200190929190803590602001909291908035906020019064010000000081111561082957600080fd5b82018360208201111561083b57600080fd5b8035906020019184600183028401116401000000008311171561085d57600080fd5b91908080601f016020809104026020016040519081016040528093929190818152602001838380828437600081840152601f19601f820116905080830192505050505050509192919290803590602001906401000000008111156108c057600080fd5b8201836020820111156108d257600080fd5b803590602001918460018302840111640100000000831117156108f457600080fd5b91908080601f016020809104026020016040519081016040528093929190818152602001838380828437600081840152601f19601f8201169050808301925050505050505091929192908035906020019092919080359060200190929190505050611aff565b604051808215151515815260200191505060405180910390f35b6109a06004803603602081101561098a57600080fd5b8101908080359060200190929190505050611ef4565b005b6060600080606060008060008060006109b9612550565b60008b815481106109c657fe5b906000526020600020906007020160405180610120016040529081600082018054600181600116156101000203166002900480601f016020809104026020016040519081016040528092919081815260200182805460018160011615610100020316600290048015610a795780601f10610a4e57610100808354040283529160200191610a79565b820191906000526020600020905b815481529060010190602001808311610a5c57829003601f168201915b505050505081526020016001820154815260200160028201548152602001600382018054600181600116156101000203166002900480601f016020809104026020016040519081016040528092919081815260200182805460018160011615610100020316600290048015610b2f5780601f10610b0457610100808354040283529160200191610b2f565b820191906000526020600020905b815481529060010190602001808311610b1257829003601f168201915b50505050508152602001600482015481526020016005820160009054906101000a900473ffffffffffffffffffffffffffffffffffffffff1673ffffffffffffffffffffffffffffffffffffffff1673ffffffffffffffffffffffffffffffffffffffff1681526020016006820160009054906101000a900473ffffffffffffffffffffffffffffffffffffffff1673ffffffffffffffffffffffffffffffffffffffff1673ffffffffffffffffffffffffffffffffffffffff1681526020016006820160149054906101000a900460ff161515151581526020016006820160159054906101000a900460ff1615151515815250509050806000015181602001518260400151836060015184608001518560a001518660c001518760e00151886101000151889850859550995099509950995099509950995099509950509193959799909294969850565b6000349050610c87612550565b60008381548110610c9457fe5b906000526020600020906007020160405180610120016040529081600082018054600181600116156101000203166002900480601f016020809104026020016040519081016040528092919081815260200182805460018160011615610100020316600290048015610d475780601f10610d1c57610100808354040283529160200191610d47565b820191906000526020600020905b815481529060010190602001808311610d2a57829003601f168201915b505050505081526020016001820154815260200160028201548152602001600382018054600181600116156101000203166002900480601f016020809104026020016040519081016040528092919081815260200182805460018160011615610100020316600290048015610dfd5780601f10610dd257610100808354040283529160200191610dfd565b820191906000526020600020905b815481529060010190602001808311610de057829003601f168201915b50505050508152602001600482015481526020016005820160009054906101000a900473ffffffffffffffffffffffffffffffffffffffff1673ffffffffffffffffffffffffffffffffffffffff1673ffffffffffffffffffffffffffffffffffffffff1681526020016006820160009054906101000a900473ffffffffffffffffffffffffffffffffffffffff1673ffffffffffffffffffffffffffffffffffffffff1673ffffffffffffffffffffffffffffffffffffffff1681526020016006820160149054906101000a900460ff161515151581526020016006820160159054906101000a900460ff16151515158152505090503373ffffffffffffffffffffffffffffffffffffffff168160c0015173ffffffffffffffffffffffffffffffffffffffff161415610f3157600080fd5b8060200151421115610f4257600080fd5b600060016000858152602001908152602001600020805490509050600082604001519050610f6e6125cc565b600083111561101b57600160008781526020019081526020016000206001840381548110610f9857fe5b90600052602060002090600202016040518060400160405290816000820160009054906101000a900473ffffffffffffffffffffffffffffffffffffffff1673ffffffffffffffffffffffffffffffffffffffff1673ffffffffffffffffffffffffffffffffffffffff1681526020016001820154815250509050806020015191505b8185101561102857600080fd5b600083111561107857806000015173ffffffffffffffffffffffffffffffffffffffff166108fc82602001519081150290604051600060405180830381858888f1935050505061107757600080fd5b5b6110806125cc565b33816000019073ffffffffffffffffffffffffffffffffffffffff16908173ffffffffffffffffffffffffffffffffffffffff1681525050858160200181815250506001600088815260200190815260200160002081908060018154018082558091505060019003906000526020600020906002020160009091909190915060008201518160000160006101000a81548173ffffffffffffffffffffffffffffffffffffffff021916908373ffffffffffffffffffffffffffffffffffffffff1602179055506020820151816001015550507f5762e6a7d331cd17a1761e94de3ea3b85e90ee6cdd9d1204e361cc650689d4633388604051808373ffffffffffffffffffffffffffffffffffffffff1673ffffffffffffffffffffffffffffffffffffffff1681526020018281526020019250505060405180910390a150505050505050565b600060016000838152602001908152602001600020805490509050919050565b600081815481106111f357fe5b9060005260206000209060070201600091509050806000018054600181600116156101000203166002900480601f01602080910402602001604051908101604052809291908181526020018280546001816001161561010002031660029004801561129f5780601f106112745761010080835404028352916020019161129f565b820191906000526020600020905b81548152906001019060200180831161128257829003601f168201915b505050505090806001015490806002015490806003018054600181600116156101000203166002900480601f0160208091040260200160405190810160405280929190818152602001828054600181600116156101000203166002900480156113495780601f1061131e57610100808354040283529160200191611349565b820191906000526020600020905b81548152906001019060200180831161132c57829003601f168201915b5050505050908060040154908060050160009054906101000a900473ffffffffffffffffffffffffffffffffffffffff16908060060160009054906101000a900473ffffffffffffffffffffffffffffffffffffffff16908060060160149054906101000a900460ff16908060060160159054906101000a900460ff16905089565b600160205281600052604060002081815481106113e457fe5b9060005260206000209060020201600091509150508060000160009054906101000a900473ffffffffffffffffffffffffffffffffffffffff16908060010154905082565b803373ffffffffffffffffffffffffffffffffffffffff166000828154811061144e57fe5b906000526020600020906007020160060160009054906101000a900473ffffffffffffffffffffffffffffffffffffffff1673ffffffffffffffffffffffffffffffffffffffff16146114a057600080fd5b6114a8612550565b600083815481106114b557fe5b906000526020600020906007020160405180610120016040529081600082018054600181600116156101000203166002900480601f0160208091040260200160405190810160405280929190818152602001828054600181600116156101000203166002900480156115685780601f1061153d57610100808354040283529160200191611568565b820191906000526020600020905b81548152906001019060200180831161154b57829003601f168201915b505050505081526020016001820154815260200160028201548152602001600382018054600181600116156101000203166002900480601f01602080910402602001604051908101604052809291908181526020018280546001816001161561010002031660029004801561161e5780601f106115f35761010080835404028352916020019161161e565b820191906000526020600020905b81548152906001019060200180831161160157829003601f168201915b50505050508152602001600482015481526020016005820160009054906101000a900473ffffffffffffffffffffffffffffffffffffffff1673ffffffffffffffffffffffffffffffffffffffff1673ffffffffffffffffffffffffffffffffffffffff1681526020016006820160009054906101000a900473ffffffffffffffffffffffffffffffffffffffff1673ffffffffffffffffffffffffffffffffffffffff1673ffffffffffffffffffffffffffffffffffffffff1681526020016006820160149054906101000a900460ff161515151581526020016006820160159054906101000a900460ff16151515158152505090506000600160008581526020019081526020016000208054905090506000811115611825576117416125cc565b60016000868152602001908152602001600020600183038154811061176257fe5b90600052602060002090600202016040518060400160405290816000820160009054906101000a900473ffffffffffffffffffffffffffffffffffffffff1673ffffffffffffffffffffffffffffffffffffffff1673ffffffffffffffffffffffffffffffffffffffff1681526020016001820154815250509050806000015173ffffffffffffffffffffffffffffffffffffffff166108fc82602001519081150290604051600060405180830381858888f1935050505061182357600080fd5b505b61183d308360c001518460a001518560800151612393565b156118e457600080858154811061185057fe5b906000526020600020906007020160060160146101000a81548160ff0219169083151502179055507f39e6c898ce035bbacd9ba4f9753534f8c9f976e0ff70be83cfe887f235afa1d33385604051808373ffffffffffffffffffffffffffffffffffffffff1673ffffffffffffffffffffffffffffffffffffffff1681526020018281526020019250505060405180910390a15b50505050565b60008080549050905090565b606080600260008473ffffffffffffffffffffffffffffffffffffffff1673ffffffffffffffffffffffffffffffffffffffff16815260200190815260200160002080548060200260200160405190810160405280929190818152602001828054801561198257602002820191906000526020600020905b81548152602001906001019080831161196e575b5050505050905080915050919050565b600260205281600052604060002081815481106119ab57fe5b90600052602060002001600091509150505481565b6000600260008373ffffffffffffffffffffffffffffffffffffffff1673ffffffffffffffffffffffffffffffffffffffff168152602001908152602001600020805490509050919050565b6000806000600160008581526020019081526020016000208054905090506000811115611aef57611a3b6125cc565b600160008681526020019081526020016000206001830381548110611a5c57fe5b90600052602060002090600202016040518060400160405290816000820160009054906101000a900473ffffffffffffffffffffffffffffffffffffffff1673ffffffffffffffffffffffffffffffffffffffff1673ffffffffffffffffffffffffffffffffffffffff168152602001600182015481525050905080602001518160000151809050935093505050611afa565b803380905092509250505b915091565b6000868660008273ffffffffffffffffffffffffffffffffffffffff16636352211e836040518263ffffffff167c01000000000000000000000000000000000000000000000000000000000281526004018082815260200191505060206040518083038186803b158015611b7257600080fd5b505afa158015611b86573d6000803e3d6000fd5b505050506040513d6020811015611b9c57600080fd5b810190808051906020019092919050505090503073ffffffffffffffffffffffffffffffffffffffff168173ffffffffffffffffffffffffffffffffffffffff1614611be757600080fd5b600080805490509050611bf8612550565b89816000018190525086816020018181525050878160400181815250508881606001819052508a8160800181815250508b8160a0019073ffffffffffffffffffffffffffffffffffffffff16908173ffffffffffffffffffffffffffffffffffffffff1681525050338160c0019073ffffffffffffffffffffffffffffffffffffffff16908173ffffffffffffffffffffffffffffffffffffffff168152505060018160e001901515908115158152505060008161010001901515908115158152505060008190806001815401808255809150506001900390600052602060002090600702016000909190919091506000820151816000019080519060200190611d039291906125fc565b5060208201518160010155604082015181600201556060820151816003019080519060200190611d349291906125fc565b506080820151816004015560a08201518160050160006101000a81548173ffffffffffffffffffffffffffffffffffffffff021916908373ffffffffffffffffffffffffffffffffffffffff16021790555060c08201518160060160006101000a81548173ffffffffffffffffffffffffffffffffffffffff021916908373ffffffffffffffffffffffffffffffffffffffff16021790555060e08201518160060160146101000a81548160ff0219169083151502179055506101008201518160060160156101000a81548160ff0219169083151502179055505050600260003373ffffffffffffffffffffffffffffffffffffffff1673ffffffffffffffffffffffffffffffffffffffff1681526020019081526020016000208290806001815401808255809150506001900390600052602060002001600090919091909150557f3249a06bd478adf780bb7930214ad005e9cfa517d63221c0b77f27199d1a58b33383604051808373ffffffffffffffffffffffffffffffffffffffff1673ffffffffffffffffffffffffffffffffffffffff1681526020018281526020019250505060405180910390a16001955050505050509695505050505050565b611efc612550565b60008281548110611f0957fe5b906000526020600020906007020160405180610120016040529081600082018054600181600116156101000203166002900480601f016020809104026020016040519081016040528092919081815260200182805460018160011615610100020316600290048015611fbc5780601f10611f9157610100808354040283529160200191611fbc565b820191906000526020600020905b815481529060010190602001808311611f9f57829003601f168201915b505050505081526020016001820154815260200160028201548152602001600382018054600181600116156101000203166002900480601f0160208091040260200160405190810160405280929190818152602001828054600181600116156101000203166002900480156120725780601f1061204757610100808354040283529160200191612072565b820191906000526020600020905b81548152906001019060200180831161205557829003601f168201915b50505050508152602001600482015481526020016005820160009054906101000a900473ffffffffffffffffffffffffffffffffffffffff1673ffffffffffffffffffffffffffffffffffffffff1673ffffffffffffffffffffffffffffffffffffffff1681526020016006820160009054906101000a900473ffffffffffffffffffffffffffffffffffffffff1673ffffffffffffffffffffffffffffffffffffffff1673ffffffffffffffffffffffffffffffffffffffff1681526020016006820160149054906101000a900460ff161515151581526020016006820160159054906101000a900460ff1615151515815250509050600060016000848152602001908152602001600020805490509050816020015142101561219557600080fd5b60008114156121ac576121a783611429565b61238e565b6121b46125cc565b6001600085815260200190815260200160002060018303815481106121d557fe5b90600052602060002090600202016040518060400160405290816000820160009054906101000a900473ffffffffffffffffffffffffffffffffffffffff1673ffffffffffffffffffffffffffffffffffffffff1673ffffffffffffffffffffffffffffffffffffffff16815260200160018201548152505090508260c0015173ffffffffffffffffffffffffffffffffffffffff166108fc82602001519081150290604051600060405180830381858888f1935050505061229657600080fd5b6122ae3082600001518560a001518660800151612393565b1561238c5760008085815481106122c157fe5b906000526020600020906007020160060160146101000a81548160ff0219169083151502179055506001600085815481106122f857fe5b906000526020600020906007020160060160156101000a81548160ff0219169083151502179055507f357afab190ee87fe0ef1c717f2728d2904d9e415a069d99f4d9382873cb3279d3385604051808373ffffffffffffffffffffffffffffffffffffffff1673ffffffffffffffffffffffffffffffffffffffff1681526020018281526020019250505060405180910390a15b505b505050565b6000808390508073ffffffffffffffffffffffffffffffffffffffff1663095ea7b386856040518363ffffffff167c0100000000000000000000000000000000000000000000000000000000028152600401808373ffffffffffffffffffffffffffffffffffffffff1673ffffffffffffffffffffffffffffffffffffffff16815260200182815260200192505050600060405180830381600087803b15801561243c57600080fd5b505af1158015612450573d6000803e3d6000fd5b505050508073ffffffffffffffffffffffffffffffffffffffff166323b872dd8787866040518463ffffffff167c0100000000000000000000000000000000000000000000000000000000028152600401808473ffffffffffffffffffffffffffffffffffffffff1673ffffffffffffffffffffffffffffffffffffffff1681526020018373ffffffffffffffffffffffffffffffffffffffff1673ffffffffffffffffffffffffffffffffffffffff1681526020018281526020019350505050600060405180830381600087803b15801561252b57600080fd5b505af115801561253f573d6000803e3d6000fd5b505050506001915050949350505050565b6040518061012001604052806060815260200160008152602001600081526020016060815260200160008152602001600073ffffffffffffffffffffffffffffffffffffffff168152602001600073ffffffffffffffffffffffffffffffffffffffff1681526020016000151581526020016000151581525090565b6040518060400160405280600073ffffffffffffffffffffffffffffffffffffffff168152602001600081525090565b828054600181600116156101000203166002900490600052602060002090601f016020900481019282601f1061263d57805160ff191683800117855561266b565b8280016001018555821561266b579182015b8281111561266a57825182559160200191906001019061264f565b5b509050612678919061267c565b5090565b61269e91905b8082111561269a576000816000905550600101612682565b5090565b9056fea26469706673582212207404288f807f1288de326cea857f88da56359a5da1481069c4dee558b17a1d6c64736f6c63430006040033",
  "source": "pragma solidity ^0.6.4;\n\nimport './Deed.sol';\n\n\n/**\n * @title Auction Repository\n * This contracts allows auctions to be created for non-fungible tokens\n * Moreover, it includes the basic functionalities of an auction house\n */\ncontract AuctionContract {\n\t// Array with all auctions\n\tAuction[] public auctions;\n\n\t// Mapping from auction index to user bids\n\tmapping(uint256 => Bid[]) public auctionBids;\n\n\t// Mapping from owner to a list of owned auctions\n\tmapping(address => uint256[]) public auctionOwner;\n\n\t// Bid struct to hold bidder and amount\n\tstruct Bid {\n\t\taddress payable from;\n\t\tuint256 amount;\n\t}\n\n\t// Auction struct which holds all the required info\n\tstruct Auction {\n\t\tstring name;\n\t\tuint256 blockDeadline;\n\t\tuint256 startPrice;\n\t\tstring metadata;\n\t\tuint256 deedId;\n\t\taddress deedAddress;\n\t\taddress payable owner;\n\t\tbool active;\n\t\tbool finalized;\n\t}\n\n\t/**\n\t * @dev Guarantees msg.sender is owner of the given auction\n\t * @param _auctionId uint ID of the auction to validate its ownership belongs to msg.sender\n\t */\n\tmodifier isOwner(uint256 _auctionId) {\n\t\trequire(auctions[_auctionId].owner == msg.sender);\n\t\t_;\n\t}\n\n\t/**\n\t * @dev Guarantees this contract is owner of the given deed/token\n\t * @param _deedAddress address of the deed repository to validate from\n\t * @param _deedId uint256 ID of the deed which has been registered in the deed repository\n\t */\n\tmodifier contractIsDeedOwner(address _deedAddress, uint256 _deedId) {\n\t\taddress deedOwner = Deed(_deedAddress).ownerOf(_deedId);\n\t\trequire(deedOwner == address(this));\n\t\t_;\n\t}\n\n\t/**\n\t * @dev Disallow payments to this contract directly\n\t */\n\treceive() external payable {\n\t\trevert();\n\t}\n\n\t/**\n\t * @dev Gets the length of auctions\n\t * @return uint representing the auction count\n\t */\n\tfunction getCount() public view returns (uint256) {\n\t\treturn auctions.length;\n\t}\n\n\t/**\n\t * @dev Gets the bid counts of a given auction\n\t * @param _auctionId uint ID of the auction\n\t */\n\tfunction getBidsCount(uint256 _auctionId) public view returns (uint256) {\n\t\treturn auctionBids[_auctionId].length;\n\t}\n\n\t/**\n\t * @dev Gets an array of owned auctions\n\t * @param _owner address of the auction owner\n\t */\n\tfunction getAuctionsOf(address _owner) public view returns (uint256[] memory) {\n\t\tuint256[] memory ownedAuctions = auctionOwner[_owner];\n\t\treturn ownedAuctions;\n\t}\n\n\t/**\n\t * @dev Gets current bid\n\t * @param _auctionId uint of the auction owner\n\t * @return amount uint256, address of last bidder\n\t */\n\tfunction getCurrentBid(uint256 _auctionId) public view returns (uint256, address) {\n\t\tuint256 bidsLength = auctionBids[_auctionId].length;\n\t\t// if there are bids refund the last bid\n\t\tif (bidsLength > 0) {\n\t\t\tBid memory lastBid = auctionBids[_auctionId][bidsLength - 1];\n\t\t\treturn (lastBid.amount, lastBid.from);\n\t\t}\n\t\treturn (bidsLength, msg.sender);\n\t}\n\n\t/**\n\t * @dev Gets the total number of auctions owned by an address\n\t * @param _owner address of the owner\n\t * @return uint total number of auctions\n\t */\n\tfunction getAuctionsCountOfOwner(address _owner) public view returns (uint256) {\n\t\treturn auctionOwner[_owner].length;\n\t}\n\n\tfunction getAuctionById(uint256 _auctionId)\n\t\tpublic\n\t\tview\n\t\treturns (\n\t\t\tstring memory name,\n\t\t\tuint256 blockDeadline,\n\t\t\tuint256 startPrice,\n\t\t\tstring memory metadata,\n\t\t\tuint256 deedId,\n\t\t\taddress deedAddress,\n\t\t\taddress payable owner,\n\t\t\tbool active,\n\t\t\tbool finalized\n\t\t)\n\t{\n\t\tAuction memory auc = auctions[_auctionId];\n\t\treturn (\n\t\t\tauc.name,\n\t\t\tauc.blockDeadline,\n\t\t\tauc.startPrice,\n\t\t\tauc.metadata,\n\t\t\tauc.deedId,\n\t\t\tauc.deedAddress,\n\t\t\tauc.owner,\n\t\t\tauc.active,\n\t\t\tauc.finalized\n\t\t);\n\t}\n\n\t/**\n\t * @dev Creates an auction with the given informatin\n\t * @param _deedAddress address of the Deed contract\n\t * @param _deedId uint256 of the deed registered in Deed\n\t * @param _auctionTitle string containing auction title\n\t * @param _metadata string containing auction metadata\n\t * @param _startPrice uint256 starting price of the auction\n\t * @param _blockDeadline uint is the timestamp in which the auction expires\n\t * @return bool whether the auction is created\n\t */\n\tfunction createAuction(\n\t\taddress _deedAddress,\n\t\tuint256 _deedId,\n\t\tstring memory _auctionTitle,\n\t\tstring memory _metadata,\n\t\tuint256 _startPrice,\n\t\tuint256 _blockDeadline\n\t) public contractIsDeedOwner(_deedAddress, _deedId) returns (bool) {\n\t\tuint256 auctionId = auctions.length;\n\t\tAuction memory newAuction;\n\t\tnewAuction.name = _auctionTitle;\n\t\tnewAuction.blockDeadline = _blockDeadline;\n\t\tnewAuction.startPrice = _startPrice;\n\t\tnewAuction.metadata = _metadata;\n\t\tnewAuction.deedId = _deedId;\n\t\tnewAuction.deedAddress = _deedAddress;\n\t\tnewAuction.owner = msg.sender;\n\t\tnewAuction.active = true;\n\t\tnewAuction.finalized = false;\n\n\t\tauctions.push(newAuction);\n\t\tauctionOwner[msg.sender].push(auctionId);\n\n\t\temit AuctionCreated(msg.sender, auctionId);\n\t\treturn true;\n\t}\n\n\tfunction approveAndTransfer(address _from, address _to, address _deedAddress, uint256 _deedId)\n\t\tinternal\n\t\treturns (bool)\n\t{\n\t\tDeed remoteContract = Deed(_deedAddress);\n\t\tremoteContract.approve(_to, _deedId);\n\t\tremoteContract.transferFrom(_from, _to, _deedId);\n\t\treturn true;\n\t}\n\n\t/**\n\t * @dev Cancels an ongoing auction by the owner\n\t * @dev Deed is transfered back to the auction owner\n\t * @dev Bidder is refunded with the initial amount\n\t * @param _auctionId uint ID of the created auction\n\t */\n\tfunction cancelAuction(uint256 _auctionId) public isOwner(_auctionId) {\n\t\tAuction memory myAuction = auctions[_auctionId];\n\t\tuint256 bidsLength = auctionBids[_auctionId].length;\n\n\t\t// if there are bids refund the last bid\n\t\tif (bidsLength > 0) {\n\t\t\tBid memory lastBid = auctionBids[_auctionId][bidsLength - 1];\n\t\t\tif (!lastBid.from.send(lastBid.amount)) {\n\t\t\t\trevert();\n\t\t\t}\n\t\t}\n\n\t\t// approve and transfer from this contract to auction owner\n\t\tif (\n\t\t\tapproveAndTransfer(\n\t\t\t\taddress(this),\n\t\t\t\tmyAuction.owner,\n\t\t\t\tmyAuction.deedAddress,\n\t\t\t\tmyAuction.deedId\n\t\t\t)\n\t\t) {\n\t\t\tauctions[_auctionId].active = false;\n\t\t\temit AuctionCanceled(msg.sender, _auctionId);\n\t\t}\n\t}\n\n\t/**\n\t * @dev Finalized an ended auction\n\t * @dev The auction should be ended, and there should be at least one bid\n\t * @dev On success Deed is transfered to bidder and auction owner gets the amount\n\t * @param _auctionId uint ID of the created auction\n\t */\n\tfunction finalizeAuction(uint256 _auctionId) public payable {\n\t\tAuction memory myAuction = auctions[_auctionId];\n\t\tuint256 bidsLength = auctionBids[_auctionId].length;\n\n\t\t// 1. if auction not ended just revert\n\t\tif (block.timestamp < myAuction.blockDeadline) revert();\n\n\t\t// if there are no bids cancel\n\t\tif (bidsLength == 0) {\n\t\t\tcancelAuction(_auctionId);\n\t\t} else {\n\t\t\t// 2. the money goes to the auction owner\n\t\t\tBid memory lastBid = auctionBids[_auctionId][bidsLength - 1];\n\t\t\tif (!myAuction.owner.send(lastBid.amount)) {\n\t\t\t\trevert();\n\t\t\t}\n\n\t\t\t// approve and transfer from this contract to the bid winner\n\t\t\tif (\n\t\t\t\tapproveAndTransfer(\n\t\t\t\t\taddress(this),\n\t\t\t\t\tlastBid.from,\n\t\t\t\t\tmyAuction.deedAddress,\n\t\t\t\t\tmyAuction.deedId\n\t\t\t\t)\n\t\t\t) {\n\t\t\t\tauctions[_auctionId].active = false;\n\t\t\t\tauctions[_auctionId].finalized = true;\n\t\t\t\temit AuctionFinalized(msg.sender, _auctionId);\n\t\t\t}\n\t\t}\n\t}\n\n\t/**\n\t * @dev Bidder sends bid on an auction\n\t * @dev Auction should be active and not ended\n\t * @dev Refund previous bidder if a new bid is valid and placed.\n\t * @param _auctionId uint ID of the created auction\n\t */\n\tfunction bidOnAuction(uint256 _auctionId) external payable {\n\t\tuint256 ethAmountSent = msg.value;\n\n\t\t// owner can't bid on their auctions\n\t\tAuction memory myAuction = auctions[_auctionId];\n\t\tif (myAuction.owner == msg.sender) revert();\n\n\t\t// if auction is expired\n\t\tif (block.timestamp > myAuction.blockDeadline) revert();\n\n\t\tuint256 bidsLength = auctionBids[_auctionId].length;\n\t\tuint256 tempAmount = myAuction.startPrice;\n\t\tBid memory lastBid;\n\n\t\t// there are previous bids\n\t\tif (bidsLength > 0) {\n\t\t\tlastBid = auctionBids[_auctionId][bidsLength - 1];\n\t\t\ttempAmount = lastBid.amount;\n\t\t}\n\n\t\t// check if amound is greater than previous amount\n\t\tif (ethAmountSent < tempAmount) revert();\n\n\t\t// refund the last bidder\n\t\tif (bidsLength > 0) {\n\t\t\tif (!lastBid.from.send(lastBid.amount)) {\n\t\t\t\trevert();\n\t\t\t}\n\t\t}\n\n\t\t// insert bid\n\t\tBid memory newBid;\n\t\tnewBid.from = msg.sender;\n\t\tnewBid.amount = ethAmountSent;\n\t\tauctionBids[_auctionId].push(newBid);\n\t\temit BidSuccess(msg.sender, _auctionId);\n\t}\n\n\tevent BidSuccess(address _from, uint256 _auctionId);\n\n\t// AuctionCreated is fired when an auction is created\n\tevent AuctionCreated(address _owner, uint256 _auctionId);\n\n\t// AuctionCanceled is fired when an auction is canceled\n\tevent AuctionCanceled(address _owner, uint256 _auctionId);\n\n\t// AuctionFinalized is fired when an auction is finalized\n\tevent AuctionFinalized(address _owner, uint256 _auctionId);\n}\n",
  "sourcePath": "/Users/Devesh/Desktop/auctionApp/backend/contracts/Auction.sol",
  "compiler": {
    "name": "solc",
    "version": "0.6.4+commit.1dca32f3.Emscripten.clang"
  },
  "schemaVersion": "3.1.0",
  "updatedAt": "2020-05-04T13:53:02.522Z",
  "networkType": "ethereum",
  "devdoc": {
    "methods": {
      "bidOnAuction(uint256)": {
        "details": "Bidder sends bid on an auctionAuction should be active and not endedRefund previous bidder if a new bid is valid and placed.",
        "params": {
          "_auctionId": "uint ID of the created auction"
        }
      },
      "cancelAuction(uint256)": {
        "details": "Cancels an ongoing auction by the ownerDeed is transfered back to the auction ownerBidder is refunded with the initial amount",
        "params": {
          "_auctionId": "uint ID of the created auction"
        }
      },
      "createAuction(address,uint256,string,string,uint256,uint256)": {
        "details": "Creates an auction with the given informatin",
        "params": {
          "_auctionTitle": "string containing auction title",
          "_blockDeadline": "uint is the timestamp in which the auction expires",
          "_deedAddress": "address of the Deed contract",
          "_deedId": "uint256 of the deed registered in Deed",
          "_metadata": "string containing auction metadata",
          "_startPrice": "uint256 starting price of the auction"
        },
        "returns": {
          "_0": "bool whether the auction is created"
        }
      },
      "finalizeAuction(uint256)": {
        "details": "Finalized an ended auctionThe auction should be ended, and there should be at least one bidOn success Deed is transfered to bidder and auction owner gets the amount",
        "params": {
          "_auctionId": "uint ID of the created auction"
        }
      },
      "getAuctionsCountOfOwner(address)": {
        "details": "Gets the total number of auctions owned by an address",
        "params": {
          "_owner": "address of the owner"
        },
        "returns": {
          "_0": "uint total number of auctions"
        }
      },
      "getAuctionsOf(address)": {
        "details": "Gets an array of owned auctions",
        "params": {
          "_owner": "address of the auction owner"
        }
      },
      "getBidsCount(uint256)": {
        "details": "Gets the bid counts of a given auction",
        "params": {
          "_auctionId": "uint ID of the auction"
        }
      },
      "getCount()": {
        "details": "Gets the length of auctions",
        "returns": {
          "_0": "uint representing the auction count"
        }
      },
      "getCurrentBid(uint256)": {
        "details": "Gets current bid",
        "params": {
          "_auctionId": "uint of the auction owner"
        },
        "returns": {
          "_0": "amount uint256, address of last bidder"
        }
      }
    },
    "title": "Auction Repository This contracts allows auctions to be created for non-fungible tokens Moreover, it includes the basic functionalities of an auction house"
  },
  "userdoc": {
    "methods": {}
  }
}