{
  "contractName": "ERC721Token",
  "abi": [
    {
      "inputs": [
        {
          "internalType": "string",
          "name": "_name",
          "type": "string"
        },
        {
          "internalType": "string",
          "name": "_symbol",
          "type": "string"
        }
      ],
      "stateMutability": "nonpayable",
      "type": "constructor"
    },
    {
      "anonymous": false,
      "inputs": [
        {
          "indexed": true,
          "internalType": "address",
          "name": "_owner",
          "type": "address"
        },
        {
          "indexed": true,
          "internalType": "address",
          "name": "_approved",
          "type": "address"
        },
        {
          "indexed": false,
          "internalType": "uint256",
          "name": "_tokenId",
          "type": "uint256"
        }
      ],
      "name": "Approval",
      "type": "event"
    },
    {
      "anonymous": false,
      "inputs": [
        {
          "indexed": true,
          "internalType": "address",
          "name": "_owner",
          "type": "address"
        },
        {
          "indexed": true,
          "internalType": "address",
          "name": "_operator",
          "type": "address"
        },
        {
          "indexed": false,
          "internalType": "bool",
          "name": "_approved",
          "type": "bool"
        }
      ],
      "name": "ApprovalForAll",
      "type": "event"
    },
    {
      "anonymous": false,
      "inputs": [
        {
          "indexed": true,
          "internalType": "address",
          "name": "_from",
          "type": "address"
        },
        {
          "indexed": true,
          "internalType": "address",
          "name": "_to",
          "type": "address"
        },
        {
          "indexed": false,
          "internalType": "uint256",
          "name": "_tokenId",
          "type": "uint256"
        }
      ],
      "name": "Transfer",
      "type": "event"
    },
    {
      "inputs": [
        {
          "internalType": "address",
          "name": "_to",
          "type": "address"
        },
        {
          "internalType": "uint256",
          "name": "_tokenId",
          "type": "uint256"
        }
      ],
      "name": "approve",
      "outputs": [],
      "stateMutability": "nonpayable",
      "type": "function"
    },
    {
      "inputs": [
        {
          "internalType": "address",
          "name": "_owner",
          "type": "address"
        }
      ],
      "name": "balanceOf",
      "outputs": [
        {
          "internalType": "uint256",
          "name": "",
          "type": "uint256"
        }
      ],
      "stateMutability": "view",
      "type": "function"
    },
    {
      "inputs": [
        {
          "internalType": "uint256",
          "name": "_tokenId",
          "type": "uint256"
        }
      ],
      "name": "exists",
      "outputs": [
        {
          "internalType": "bool",
          "name": "",
          "type": "bool"
        }
      ],
      "stateMutability": "view",
      "type": "function"
    },
    {
      "inputs": [
        {
          "internalType": "uint256",
          "name": "_tokenId",
          "type": "uint256"
        }
      ],
      "name": "getApproved",
      "outputs": [
        {
          "internalType": "address",
          "name": "",
          "type": "address"
        }
      ],
      "stateMutability": "view",
      "type": "function"
    },
    {
      "inputs": [
        {
          "internalType": "address",
          "name": "_owner",
          "type": "address"
        },
        {
          "internalType": "address",
          "name": "_operator",
          "type": "address"
        }
      ],
      "name": "isApprovedForAll",
      "outputs": [
        {
          "internalType": "bool",
          "name": "",
          "type": "bool"
        }
      ],
      "stateMutability": "view",
      "type": "function"
    },
    {
      "inputs": [
        {
          "internalType": "uint256",
          "name": "_tokenId",
          "type": "uint256"
        }
      ],
      "name": "ownerOf",
      "outputs": [
        {
          "internalType": "address",
          "name": "",
          "type": "address"
        }
      ],
      "stateMutability": "view",
      "type": "function"
    },
    {
      "inputs": [
        {
          "internalType": "address",
          "name": "_from",
          "type": "address"
        },
        {
          "internalType": "address",
          "name": "_to",
          "type": "address"
        },
        {
          "internalType": "uint256",
          "name": "_tokenId",
          "type": "uint256"
        }
      ],
      "name": "safeTransferFrom",
      "outputs": [],
      "stateMutability": "nonpayable",
      "type": "function"
    },
    {
      "inputs": [
        {
          "internalType": "address",
          "name": "_from",
          "type": "address"
        },
        {
          "internalType": "address",
          "name": "_to",
          "type": "address"
        },
        {
          "internalType": "uint256",
          "name": "_tokenId",
          "type": "uint256"
        },
        {
          "internalType": "bytes",
          "name": "_data",
          "type": "bytes"
        }
      ],
      "name": "safeTransferFrom",
      "outputs": [],
      "stateMutability": "nonpayable",
      "type": "function"
    },
    {
      "inputs": [
        {
          "internalType": "address",
          "name": "_to",
          "type": "address"
        },
        {
          "internalType": "bool",
          "name": "_approved",
          "type": "bool"
        }
      ],
      "name": "setApprovalForAll",
      "outputs": [],
      "stateMutability": "nonpayable",
      "type": "function"
    },
    {
      "inputs": [
        {
          "internalType": "address",
          "name": "_from",
          "type": "address"
        },
        {
          "internalType": "address",
          "name": "_to",
          "type": "address"
        },
        {
          "internalType": "uint256",
          "name": "_tokenId",
          "type": "uint256"
        }
      ],
      "name": "transferFrom",
      "outputs": [],
      "stateMutability": "nonpayable",
      "type": "function"
    },
    {
      "inputs": [],
      "name": "name",
      "outputs": [
        {
          "internalType": "string",
          "name": "",
          "type": "string"
        }
      ],
      "stateMutability": "view",
      "type": "function"
    },
    {
      "inputs": [],
      "name": "symbol",
      "outputs": [
        {
          "internalType": "string",
          "name": "",
          "type": "string"
        }
      ],
      "stateMutability": "view",
      "type": "function"
    },
    {
      "inputs": [
        {
          "internalType": "uint256",
          "name": "_tokenId",
          "type": "uint256"
        }
      ],
      "name": "tokenURI",
      "outputs": [
        {
          "internalType": "string",
          "name": "",
          "type": "string"
        }
      ],
      "stateMutability": "view",
      "type": "function"
    },
    {
      "inputs": [
        {
          "internalType": "address",
          "name": "_owner",
          "type": "address"
        },
        {
          "internalType": "uint256",
          "name": "_index",
          "type": "uint256"
        }
      ],
      "name": "tokenOfOwnerByIndex",
      "outputs": [
        {
          "internalType": "uint256",
          "name": "",
          "type": "uint256"
        }
      ],
      "stateMutability": "view",
      "type": "function"
    },
    {
      "inputs": [],
      "name": "totalSupply",
      "outputs": [
        {
          "internalType": "uint256",
          "name": "",
          "type": "uint256"
        }
      ],
      "stateMutability": "view",
      "type": "function"
    },
    {
      "inputs": [
        {
          "internalType": "uint256",
          "name": "_index",
          "type": "uint256"
        }
      ],
      "name": "tokenByIndex",
      "outputs": [
        {
          "internalType": "uint256",
          "name": "",
          "type": "uint256"
        }
      ],
      "stateMutability": "view",
      "type": "function"
    }
  ],
  "bytecode": "0x60806040523480156200001157600080fd5b5060405162001e0538038062001e05833981810160405260408110156200003757600080fd5b81019080805160405193929190846401000000008211156200005857600080fd5b838201915060208201858111156200006f57600080fd5b82518660018202830111640100000000821117156200008d57600080fd5b8083526020830192505050908051906020019080838360005b83811015620000c3578082015181840152602081019050620000a6565b50505050905090810190601f168015620000f15780820380516001836020036101000a031916815260200191505b50604052602001805160405193929190846401000000008211156200011557600080fd5b838201915060208201858111156200012c57600080fd5b82518660018202830111640100000000821117156200014a57600080fd5b8083526020830192505050908051906020019080838360005b838110156200018057808201518184015260208101905062000163565b50505050905090810190601f168015620001ae5780820380516001836020036101000a031916815260200191505b506040525050508160049080519060200190620001cd929190620001ef565b508060059080519060200190620001e6929190620001ef565b5050506200029e565b828054600181600116156101000203166002900490600052602060002090601f016020900481019282601f106200023257805160ff191683800117855562000263565b8280016001018555821562000263579182015b828111156200026257825182559160200191906001019062000245565b5b50905062000272919062000276565b5090565b6200029b91905b80821115620002975760008160009055506001016200027d565b5090565b90565b611b5780620002ae6000396000f3fe608060405234801561001057600080fd5b506004361061011d576000357c0100000000000000000000000000000000000000000000000000000000900480634f6ccce7116100b4578063a22cb46511610083578063a22cb4651461058e578063b88d4fde146105de578063c87b56dd146106e3578063e985e9c51461078a5761011d565b80634f6ccce7146104035780636352211e1461044557806370a08231146104b357806395d89b411461050b5761011d565b806323b872dd116100f057806323b872dd1461027f5780632f745c59146102ed57806342842e0e1461034f5780634f558e79146103bd5761011d565b806306fdde0314610122578063081812fc146101a5578063095ea7b31461021357806318160ddd14610261575b600080fd5b61012a610806565b6040518080602001828103825283818151815260200191508051906020019080838360005b8381101561016a57808201518184015260208101905061014f565b50505050905090810190601f1680156101975780820380516001836020036101000a031916815260200191505b509250505060405180910390f35b6101d1600480360360208110156101bb57600080fd5b81019080803590602001909291905050506108a8565b604051808273ffffffffffffffffffffffffffffffffffffffff1673ffffffffffffffffffffffffffffffffffffffff16815260200191505060405180910390f35b61025f6004803603604081101561022957600080fd5b81019080803573ffffffffffffffffffffffffffffffffffffffff169060200190929190803590602001909291905050506108e5565b005b610269610aa7565b6040518082815260200191505060405180910390f35b6102eb6004803603606081101561029557600080fd5b81019080803573ffffffffffffffffffffffffffffffffffffffff169060200190929190803573ffffffffffffffffffffffffffffffffffffffff16906020019092919080359060200190929190505050610ab4565b005b6103396004803603604081101561030357600080fd5b81019080803573ffffffffffffffffffffffffffffffffffffffff16906020019092919080359060200190929190505050610bc5565b6040518082815260200191505060405180910390f35b6103bb6004803603606081101561036557600080fd5b81019080803573ffffffffffffffffffffffffffffffffffffffff169060200190929190803573ffffffffffffffffffffffffffffffffffffffff16906020019092919080359060200190929190505050610c38565b005b6103e9600480360360208110156103d357600080fd5b8101908080359060200190929190505050610c6d565b604051808215151515815260200191505060405180910390f35b61042f6004803603602081101561041957600080fd5b8101908080359060200190929190505050610cde565b6040518082815260200191505060405180910390f35b6104716004803603602081101561045b57600080fd5b8101908080359060200190929190505050610d12565b604051808273ffffffffffffffffffffffffffffffffffffffff1673ffffffffffffffffffffffffffffffffffffffff16815260200191505060405180910390f35b6104f5600480360360208110156104c957600080fd5b81019080803573ffffffffffffffffffffffffffffffffffffffff169060200190929190505050610d8d565b6040518082815260200191505060405180910390f35b610513610e0f565b6040518080602001828103825283818151815260200191508051906020019080838360005b83811015610553578082015181840152602081019050610538565b50505050905090810190601f1680156105805780820380516001836020036101000a031916815260200191505b509250505060405180910390f35b6105dc600480360360408110156105a457600080fd5b81019080803573ffffffffffffffffffffffffffffffffffffffff169060200190929190803515159060200190929190505050610eb1565b005b6106e1600480360360808110156105f457600080fd5b81019080803573ffffffffffffffffffffffffffffffffffffffff169060200190929190803573ffffffffffffffffffffffffffffffffffffffff169060200190929190803590602001909291908035906020019064010000000081111561065b57600080fd5b82018360208201111561066d57600080fd5b8035906020019184600183028401116401000000008311171561068f57600080fd5b91908080601f016020809104026020016040519081016040528093929190818152602001838380828437600081840152601f19601f820116905080830192505050505050509192919290505050610feb565b005b61070f600480360360208110156106f957600080fd5b8101908080359060200190929190505050611026565b6040518080602001828103825283818151815260200191508051906020019080838360005b8381101561074f578082015181840152602081019050610734565b50505050905090810190601f16801561077c5780820380516001836020036101000a031916815260200191505b509250505060405180910390f35b6107ec600480360360408110156107a057600080fd5b81019080803573ffffffffffffffffffffffffffffffffffffffff169060200190929190803573ffffffffffffffffffffffffffffffffffffffff1690602001909291905050506110ed565b604051808215151515815260200191505060405180910390f35b606060048054600181600116156101000203166002900480601f01602080910402602001604051908101604052809291908181526020018280546001816001161561010002031660029004801561089e5780601f106108735761010080835404028352916020019161089e565b820191906000526020600020905b81548152906001019060200180831161088157829003601f168201915b5050505050905090565b60006001600083815260200190815260200160002060009054906101000a900473ffffffffffffffffffffffffffffffffffffffff169050919050565b60006108f082610d12565b90508073ffffffffffffffffffffffffffffffffffffffff168373ffffffffffffffffffffffffffffffffffffffff16141561092b57600080fd5b8073ffffffffffffffffffffffffffffffffffffffff163373ffffffffffffffffffffffffffffffffffffffff16148061096b575061096a81336110ed565b5b61097457600080fd5b600073ffffffffffffffffffffffffffffffffffffffff16610995836108a8565b73ffffffffffffffffffffffffffffffffffffffff161415806109e55750600073ffffffffffffffffffffffffffffffffffffffff168373ffffffffffffffffffffffffffffffffffffffff1614155b15610aa257826001600084815260200190815260200160002060006101000a81548173ffffffffffffffffffffffffffffffffffffffff021916908373ffffffffffffffffffffffffffffffffffffffff1602179055508273ffffffffffffffffffffffffffffffffffffffff168173ffffffffffffffffffffffffffffffffffffffff167f8c5be1e5ebec7d5bd14f71427d1e84f3dd0314c0f7b2291e5b200ac8c7c3b925846040518082815260200191505060405180910390a35b505050565b6000600880549050905090565b80610abf3382611181565b610ac857600080fd5b600073ffffffffffffffffffffffffffffffffffffffff168473ffffffffffffffffffffffffffffffffffffffff161415610b0257600080fd5b600073ffffffffffffffffffffffffffffffffffffffff168373ffffffffffffffffffffffffffffffffffffffff161415610b3c57600080fd5b610b468483611216565b610b50848361137b565b610b5a8383611592565b8273ffffffffffffffffffffffffffffffffffffffff168473ffffffffffffffffffffffffffffffffffffffff167fddf252ad1be2c89b69c2b068fc378daa952ba7f163c4a11628f55a4df523b3ef846040518082815260200191505060405180910390a350505050565b6000610bd083610d8d565b8210610bdb57600080fd5b600660008473ffffffffffffffffffffffffffffffffffffffff1673ffffffffffffffffffffffffffffffffffffffff1681526020019081526020016000208281548110610c2557fe5b9060005260206000200154905092915050565b80610c433382611181565b610c4c57600080fd5b610c6784848460405180602001604052806000815250610feb565b50505050565b60008060008084815260200190815260200160002060009054906101000a900473ffffffffffffffffffffffffffffffffffffffff169050600073ffffffffffffffffffffffffffffffffffffffff168173ffffffffffffffffffffffffffffffffffffffff161415915050919050565b6000610ce8610aa7565b8210610cf357600080fd5b60088281548110610d0057fe5b90600052602060002001549050919050565b60008060008084815260200190815260200160002060009054906101000a900473ffffffffffffffffffffffffffffffffffffffff169050600073ffffffffffffffffffffffffffffffffffffffff168173ffffffffffffffffffffffffffffffffffffffff161415610d8457600080fd5b80915050919050565b60008073ffffffffffffffffffffffffffffffffffffffff168273ffffffffffffffffffffffffffffffffffffffff161415610dc857600080fd5b600260008373ffffffffffffffffffffffffffffffffffffffff1673ffffffffffffffffffffffffffffffffffffffff168152602001908152602001600020549050919050565b606060058054600181600116156101000203166002900480601f016020809104026020016040519081016040528092919081815260200182805460018160011615610100020316600290048015610ea75780601f10610e7c57610100808354040283529160200191610ea7565b820191906000526020600020905b815481529060010190602001808311610e8a57829003601f168201915b5050505050905090565b3373ffffffffffffffffffffffffffffffffffffffff168273ffffffffffffffffffffffffffffffffffffffff161415610eea57600080fd5b80600360003373ffffffffffffffffffffffffffffffffffffffff1673ffffffffffffffffffffffffffffffffffffffff16815260200190815260200160002060008473ffffffffffffffffffffffffffffffffffffffff1673ffffffffffffffffffffffffffffffffffffffff16815260200190815260200160002060006101000a81548160ff0219169083151502179055508173ffffffffffffffffffffffffffffffffffffffff163373ffffffffffffffffffffffffffffffffffffffff167f17307eab39ab6107e8899845ad3d59bd9653f200f220920489ca2b5937696c3183604051808215151515815260200191505060405180910390a35050565b81610ff63382611181565b610fff57600080fd5b61100a858585610ab4565b61101685858585611666565b61101f57600080fd5b5050505050565b606061103182610c6d565b61103a57600080fd5b600a60008381526020019081526020016000208054600181600116156101000203166002900480601f0160208091040260200160405190810160405280929190818152602001828054600181600116156101000203166002900480156110e15780601f106110b6576101008083540402835291602001916110e1565b820191906000526020600020905b8154815290600101906020018083116110c457829003601f168201915b50505050509050919050565b6000600360008473ffffffffffffffffffffffffffffffffffffffff1673ffffffffffffffffffffffffffffffffffffffff16815260200190815260200160002060008373ffffffffffffffffffffffffffffffffffffffff1673ffffffffffffffffffffffffffffffffffffffff16815260200190815260200160002060009054906101000a900460ff16905092915050565b60008061118d83610d12565b90508073ffffffffffffffffffffffffffffffffffffffff168473ffffffffffffffffffffffffffffffffffffffff1614806111fc57508373ffffffffffffffffffffffffffffffffffffffff166111e4846108a8565b73ffffffffffffffffffffffffffffffffffffffff16145b8061120d575061120c81856110ed565b5b91505092915050565b8173ffffffffffffffffffffffffffffffffffffffff1661123682610d12565b73ffffffffffffffffffffffffffffffffffffffff161461125657600080fd5b600073ffffffffffffffffffffffffffffffffffffffff166001600083815260200190815260200160002060009054906101000a900473ffffffffffffffffffffffffffffffffffffffff1673ffffffffffffffffffffffffffffffffffffffff16146113775760006001600083815260200190815260200160002060006101000a81548173ffffffffffffffffffffffffffffffffffffffff021916908373ffffffffffffffffffffffffffffffffffffffff160217905550600073ffffffffffffffffffffffffffffffffffffffff168273ffffffffffffffffffffffffffffffffffffffff167f8c5be1e5ebec7d5bd14f71427d1e84f3dd0314c0f7b2291e5b200ac8c7c3b925836040518082815260200191505060405180910390a35b5050565b6113858282611853565b60006007600083815260200190815260200160002054905060006113f56001600660008773ffffffffffffffffffffffffffffffffffffffff1673ffffffffffffffffffffffffffffffffffffffff1681526020019081526020016000208054905061197f90919063ffffffff16565b90506000600660008673ffffffffffffffffffffffffffffffffffffffff1673ffffffffffffffffffffffffffffffffffffffff168152602001908152602001600020828154811061144357fe5b9060005260206000200154905080600660008773ffffffffffffffffffffffffffffffffffffffff1673ffffffffffffffffffffffffffffffffffffffff168152602001908152602001600020848154811061149b57fe5b90600052602060002001819055506000600660008773ffffffffffffffffffffffffffffffffffffffff1673ffffffffffffffffffffffffffffffffffffffff16815260200190815260200160002083815481106114f557fe5b90600052602060002001819055506115596001600660008873ffffffffffffffffffffffffffffffffffffffff1673ffffffffffffffffffffffffffffffffffffffff1681526020019081526020016000208054905061197f90919063ffffffff16565b50600060076000868152602001908152602001600020819055508260076000838152602001908152602001600020819055505050505050565b61159c8282611996565b6000600660008473ffffffffffffffffffffffffffffffffffffffff1673ffffffffffffffffffffffffffffffffffffffff168152602001908152602001600020805490509050600660008473ffffffffffffffffffffffffffffffffffffffff1673ffffffffffffffffffffffffffffffffffffffff168152602001908152602001600020829080600181540180825580915050600190039060005260206000200160009091909190915055806007600084815260200190815260200160002081905550505050565b60006116878473ffffffffffffffffffffffffffffffffffffffff16611aec565b611694576001905061184b565b60008473ffffffffffffffffffffffffffffffffffffffff1663f0b9e5ba8786866040518463ffffffff167c0100000000000000000000000000000000000000000000000000000000028152600401808473ffffffffffffffffffffffffffffffffffffffff1673ffffffffffffffffffffffffffffffffffffffff16815260200183815260200180602001828103825283818151815260200191508051906020019080838360005b8381101561175857808201518184015260208101905061173d565b50505050905090810190601f1680156117855780820380516001836020036101000a031916815260200191505b50945050505050602060405180830381600087803b1580156117a657600080fd5b505af11580156117ba573d6000803e3d6000fd5b505050506040513d60208110156117d057600080fd5b8101908080519060200190929190505050905063f0b9e5ba7c0100000000000000000000000000000000000000000000000000000000027bffffffffffffffffffffffffffffffffffffffffffffffffffffffff1916817bffffffffffffffffffffffffffffffffffffffffffffffffffffffff1916149150505b949350505050565b8173ffffffffffffffffffffffffffffffffffffffff1661187382610d12565b73ffffffffffffffffffffffffffffffffffffffff161461189357600080fd5b6118e66001600260008573ffffffffffffffffffffffffffffffffffffffff1673ffffffffffffffffffffffffffffffffffffffff1681526020019081526020016000205461197f90919063ffffffff16565b600260008473ffffffffffffffffffffffffffffffffffffffff1673ffffffffffffffffffffffffffffffffffffffff16815260200190815260200160002081905550600080600083815260200190815260200160002060006101000a81548173ffffffffffffffffffffffffffffffffffffffff021916908373ffffffffffffffffffffffffffffffffffffffff1602179055505050565b60008282111561198b57fe5b818303905092915050565b600073ffffffffffffffffffffffffffffffffffffffff1660008083815260200190815260200160002060009054906101000a900473ffffffffffffffffffffffffffffffffffffffff1673ffffffffffffffffffffffffffffffffffffffff1614611a0157600080fd5b8160008083815260200190815260200160002060006101000a81548173ffffffffffffffffffffffffffffffffffffffff021916908373ffffffffffffffffffffffffffffffffffffffff160217905550611aa56001600260008573ffffffffffffffffffffffffffffffffffffffff1673ffffffffffffffffffffffffffffffffffffffff16815260200190815260200160002054611b0590919063ffffffff16565b600260008473ffffffffffffffffffffffffffffffffffffffff1673ffffffffffffffffffffffffffffffffffffffff168152602001908152602001600020819055505050565b600080823b905060008163ffffffff1611915050919050565b600080828401905083811015611b1757fe5b809150509291505056fea2646970667358221220b8297bf6f4c5f4699b8decf4f21785d754460d4ddf9587dcbdbbca3ed64bc92264736f6c63430006040033",
  "source": "pragma solidity ^0.6.4;\n\nimport './ERC721.sol';\nimport './DeprecatedERC721.sol';\nimport './ERC721BasicToken.sol';\n\n\n/**\n * @title Full ERC721 Token\n * This implementation includes all the required and some optional functionality of the ERC721 standard\n * Moreover, it includes approve all functionality using operator terminology\n * @dev see https://github.com/ethereum/EIPs/blob/master/EIPS/eip-721.md\n */\ncontract ERC721Token is ERC721, ERC721BasicToken {\n\t// Token name\n\tstring internal name_;\n\n\t// Token symbol\n\tstring internal symbol_;\n\n\t// Mapping from owner to list of owned token IDs\n\tmapping(address => uint256[]) internal ownedTokens;\n\n\t// Mapping from token ID to index of the owner tokens list\n\tmapping(uint256 => uint256) internal ownedTokensIndex;\n\n\t// Array with all token ids, used for enumeration\n\tuint256[] internal allTokens;\n\n\t// Mapping from token id to position in the allTokens array\n\tmapping(uint256 => uint256) internal allTokensIndex;\n\n\t// Optional mapping for token URIs\n\tmapping(uint256 => string) internal tokenURIs;\n\n\t/**\n\t * @dev Constructor function\n\t */\n\tconstructor(string memory _name, string memory _symbol) public {\n\t\tname_ = _name;\n\t\tsymbol_ = _symbol;\n\t}\n\n\t/**\n\t * @dev Gets the token name\n\t * @return string representing the token name\n\t */\n\tfunction name() public override view returns (string memory) {\n\t\treturn name_;\n\t}\n\n\t/**\n\t * @dev Gets the token symbol\n\t * @return string representing the token symbol\n\t */\n\tfunction symbol() public override view returns (string memory) {\n\t\treturn symbol_;\n\t}\n\n\t/**\n\t * @dev Returns an URI for a given token ID\n\t * @dev Throws if the token ID does not exist. May return an empty string.\n\t * @param _tokenId uint256 ID of the token to query\n\t */\n\tfunction tokenURI(uint256 _tokenId) public override view returns (string memory) {\n\t\trequire(exists(_tokenId));\n\t\treturn tokenURIs[_tokenId];\n\t}\n\n\t/**\n\t * @dev Gets the token ID at a given index of the tokens list of the requested owner\n\t * @param _owner address owning the tokens list to be accessed\n\t * @param _index uint256 representing the index to be accessed of the requested tokens list\n\t * @return uint256 token ID at the given index of the tokens list owned by the requested address\n\t */\n\tfunction tokenOfOwnerByIndex(address _owner, uint256 _index) public view override returns (uint256) {\n\t\trequire(_index < balanceOf(_owner));\n\t\treturn ownedTokens[_owner][_index];\n\t}\n\n\t/**\n\t * @dev Gets the total amount of tokens stored by the contract\n\t * @return uint256 representing the total amount of tokens\n\t */\n\tfunction totalSupply() public view override returns (uint256) {\n\t\treturn allTokens.length;\n\t}\n\n\t/**\n\t * @dev Gets the token ID at a given index of all the tokens in this contract\n\t * @dev Reverts if the index is greater or equal to the total number of tokens\n\t * @param _index uint256 representing the index to be accessed of the tokens list\n\t * @return uint256 token ID at the given index of the tokens list\n\t */\n\tfunction tokenByIndex(uint256 _index) public view override returns (uint256) {\n\t\trequire(_index < totalSupply());\n\t\treturn allTokens[_index];\n\t}\n\n\t/**\n\t * @dev Internal function to set the token URI for a given token\n\t * @dev Reverts if the token ID does not exist\n\t * @param _tokenId uint256 ID of the token to set its URI\n\t * @param _uri string URI to assign\n\t */\n\tfunction _setTokenURI(uint256 _tokenId, string memory _uri) internal {\n\t\trequire(exists(_tokenId));\n\t\ttokenURIs[_tokenId] = _uri;\n\t}\n\n\t/**\n\t * @dev Internal function to add a token ID to the list of a given address\n\t * @param _to address representing the new owner of the given token ID\n\t * @param _tokenId uint256 ID of the token to be added to the tokens list of the given address\n\t */\n\tfunction addTokenTo(address _to, uint256 _tokenId) internal override {\n\t\tsuper.addTokenTo(_to, _tokenId);\n\t\tuint256 length = ownedTokens[_to].length;\n\t\townedTokens[_to].push(_tokenId);\n\t\townedTokensIndex[_tokenId] = length;\n\t}\n\n\t/**\n\t * @dev Internal function to remove a token ID from the list of a given address\n\t * @param _from address representing the previous owner of the given token ID\n\t * @param _tokenId uint256 ID of the token to be removed from the tokens list of the given address\n\t */\n\tfunction removeTokenFrom(address _from, uint256 _tokenId) internal override {\n\t\tsuper.removeTokenFrom(_from, _tokenId);\n\n\t\tuint256 tokenIndex = ownedTokensIndex[_tokenId];\n\t\tuint256 lastTokenIndex = ownedTokens[_from].length.sub(1);\n\t\tuint256 lastToken = ownedTokens[_from][lastTokenIndex];\n\n\t\townedTokens[_from][tokenIndex] = lastToken;\n\t\townedTokens[_from][lastTokenIndex] = 0;\n\t\t// Note that this will handle single-element arrays. In that case, both tokenIndex and lastTokenIndex are going to\n\t\t// be zero. Then we can make sure that we will remove _tokenId from the ownedTokens list since we are first swapping\n\t\t// the lastToken to the first position, and then dropping the element placed in the last position of the list\n\n\t\townedTokens[_from].length.sub(1);\n\t\townedTokensIndex[_tokenId] = 0;\n\t\townedTokensIndex[lastToken] = tokenIndex;\n\t}\n\n\t/**\n\t * @dev Internal function to mint a new token\n\t * @dev Reverts if the given token ID already exists\n\t * @param _to address the beneficiary that will own the minted token\n\t * @param _tokenId uint256 ID of the token to be minted by the msg.sender\n\t */\n\tfunction _mint(address _to, uint256 _tokenId) internal override {\n\t\tsuper._mint(_to, _tokenId);\n\n\t\tallTokensIndex[_tokenId] = allTokens.length;\n\t\tallTokens.push(_tokenId);\n\t}\n\n\t/**\n\t * @dev Internal function to burn a specific token\n\t * @dev Reverts if the token does not exist\n\t * @param _owner owner of the token to burn\n\t * @param _tokenId uint256 ID of the token being burned by the msg.sender\n\t */\n\tfunction _burn(address _owner, uint256 _tokenId) internal  override{\n\t\tsuper._burn(_owner, _tokenId);\n\n\t\t// Clear metadata (if any)\n\t\tif (bytes(tokenURIs[_tokenId]).length != 0) {\n\t\t\tdelete tokenURIs[_tokenId];\n\t\t}\n\n\t\t// Reorg all tokens array\n\t\tuint256 tokenIndex = allTokensIndex[_tokenId];\n\t\tuint256 lastTokenIndex = allTokens.length.sub(1);\n\t\tuint256 lastToken = allTokens[lastTokenIndex];\n\n\t\tallTokens[tokenIndex] = lastToken;\n\t\tallTokens[lastTokenIndex] = 0;\n\n\t\tallTokens.length.sub(1);\n\t\tallTokensIndex[_tokenId] = 0;\n\t\tallTokensIndex[lastToken] = tokenIndex;\n\t}\n}\n",
  "sourcePath": "/Users/Devesh/Desktop/auctionApp/backend/contracts/ERC721/ERC721Token.sol",
  "compiler": {
    "name": "solc",
    "version": "0.6.4+commit.1dca32f3.Emscripten.clang"
  },
  "schemaVersion": "3.1.0",
  "updatedAt": "2020-05-04T09:11:18.845Z",
  "devdoc": {
    "details": "see https://github.com/ethereum/EIPs/blob/master/EIPS/eip-721.md",
    "methods": {
      "approve(address,uint256)": {
        "details": "Approves another address to transfer the given token IDThe zero address indicates there is no approved address.There can only be one approved address per token at a given time.Can only be called by the token owner or an approved operator.",
        "params": {
          "_to": "address to be approved for the given token ID",
          "_tokenId": "uint256 ID of the token to be approved"
        }
      },
      "balanceOf(address)": {
        "details": "Gets the balance of the specified address",
        "params": {
          "_owner": "address to query the balance of"
        },
        "returns": {
          "_0": "uint256 representing the amount owned by the passed address"
        }
      },
      "constructor": {
        "details": "Constructor function"
      },
      "exists(uint256)": {
        "details": "Returns whether the specified token exists",
        "params": {
          "_tokenId": "uint256 ID of the token to query the existance of"
        },
        "returns": {
          "_0": "whether the token exists"
        }
      },
      "getApproved(uint256)": {
        "details": "Gets the approved address for a token ID, or zero if no address set",
        "params": {
          "_tokenId": "uint256 ID of the token to query the approval of"
        },
        "returns": {
          "_0": "address currently approved for a the given token ID"
        }
      },
      "isApprovedForAll(address,address)": {
        "details": "Tells whether an operator is approved by a given owner",
        "params": {
          "_operator": "operator address which you want to query the approval of",
          "_owner": "owner address which you want to query the approval of"
        },
        "returns": {
          "_0": "bool whether the given operator is approved by the given owner"
        }
      },
      "name()": {
        "details": "Gets the token name",
        "returns": {
          "_0": "string representing the token name"
        }
      },
      "ownerOf(uint256)": {
        "details": "Gets the owner of the specified token ID",
        "params": {
          "_tokenId": "uint256 ID of the token to query the owner of"
        },
        "returns": {
          "_0": "owner address currently marked as the owner of the given token ID"
        }
      },
      "safeTransferFrom(address,address,uint256)": {
        "details": "Safely transfers the ownership of a given token ID to another addressIf the target address is a contract, it must implement `onERC721Received`, which is called upon a safe transfer, and return the magic value `bytes4(keccak256(\"onERC721Received(address,uint256,bytes)\"))`; otherwise, the transfer is reverted.Requires the msg sender to be the owner, approved, or operator",
        "params": {
          "_from": "current owner of the token",
          "_to": "address to receive the ownership of the given token ID",
          "_tokenId": "uint256 ID of the token to be transferred"
        }
      },
      "safeTransferFrom(address,address,uint256,bytes)": {
        "details": "Safely transfers the ownership of a given token ID to another addressIf the target address is a contract, it must implement `onERC721Received`, which is called upon a safe transfer, and return the magic value `bytes4(keccak256(\"onERC721Received(address,uint256,bytes)\"))`; otherwise, the transfer is reverted.Requires the msg sender to be the owner, approved, or operator",
        "params": {
          "_data": "bytes data to send along with a safe transfer check",
          "_from": "current owner of the token",
          "_to": "address to receive the ownership of the given token ID",
          "_tokenId": "uint256 ID of the token to be transferred"
        }
      },
      "setApprovalForAll(address,bool)": {
        "details": "Sets or unsets the approval of a given operatorAn operator is allowed to transfer all tokens of the sender on their behalf",
        "params": {
          "_approved": "representing the status of the approval to be set",
          "_to": "operator address to set the approval"
        }
      },
      "symbol()": {
        "details": "Gets the token symbol",
        "returns": {
          "_0": "string representing the token symbol"
        }
      },
      "tokenByIndex(uint256)": {
        "details": "Gets the token ID at a given index of all the tokens in this contractReverts if the index is greater or equal to the total number of tokens",
        "params": {
          "_index": "uint256 representing the index to be accessed of the tokens list"
        },
        "returns": {
          "_0": "uint256 token ID at the given index of the tokens list"
        }
      },
      "tokenOfOwnerByIndex(address,uint256)": {
        "details": "Gets the token ID at a given index of the tokens list of the requested owner",
        "params": {
          "_index": "uint256 representing the index to be accessed of the requested tokens list",
          "_owner": "address owning the tokens list to be accessed"
        },
        "returns": {
          "_0": "uint256 token ID at the given index of the tokens list owned by the requested address"
        }
      },
      "tokenURI(uint256)": {
        "details": "Returns an URI for a given token IDThrows if the token ID does not exist. May return an empty string.",
        "params": {
          "_tokenId": "uint256 ID of the token to query"
        }
      },
      "totalSupply()": {
        "details": "Gets the total amount of tokens stored by the contract",
        "returns": {
          "_0": "uint256 representing the total amount of tokens"
        }
      },
      "transferFrom(address,address,uint256)": {
        "details": "Transfers the ownership of a given token ID to another addressUsage of this method is discouraged, use `safeTransferFrom` whenever possibleRequires the msg sender to be the owner, approved, or operator",
        "params": {
          "_from": "current owner of the token",
          "_to": "address to receive the ownership of the given token ID",
          "_tokenId": "uint256 ID of the token to be transferred"
        }
      }
    },
    "title": "Full ERC721 Token This implementation includes all the required and some optional functionality of the ERC721 standard Moreover, it includes approve all functionality using operator terminology"
  },
  "userdoc": {
    "methods": {}
  }
}