{
  "contractName": "ERC721BasicToken",
  "abi": [
    {
      "anonymous": false,
      "inputs": [
        {
          "indexed": true,
          "internalType": "address",
          "name": "_owner",
          "type": "address"
        },
        {
          "indexed": true,
          "internalType": "address",
          "name": "_approved",
          "type": "address"
        },
        {
          "indexed": false,
          "internalType": "uint256",
          "name": "_tokenId",
          "type": "uint256"
        }
      ],
      "name": "Approval",
      "type": "event"
    },
    {
      "anonymous": false,
      "inputs": [
        {
          "indexed": true,
          "internalType": "address",
          "name": "_owner",
          "type": "address"
        },
        {
          "indexed": true,
          "internalType": "address",
          "name": "_operator",
          "type": "address"
        },
        {
          "indexed": false,
          "internalType": "bool",
          "name": "_approved",
          "type": "bool"
        }
      ],
      "name": "ApprovalForAll",
      "type": "event"
    },
    {
      "anonymous": false,
      "inputs": [
        {
          "indexed": true,
          "internalType": "address",
          "name": "_from",
          "type": "address"
        },
        {
          "indexed": true,
          "internalType": "address",
          "name": "_to",
          "type": "address"
        },
        {
          "indexed": false,
          "internalType": "uint256",
          "name": "_tokenId",
          "type": "uint256"
        }
      ],
      "name": "Transfer",
      "type": "event"
    },
    {
      "inputs": [
        {
          "internalType": "address",
          "name": "_owner",
          "type": "address"
        }
      ],
      "name": "balanceOf",
      "outputs": [
        {
          "internalType": "uint256",
          "name": "",
          "type": "uint256"
        }
      ],
      "stateMutability": "view",
      "type": "function"
    },
    {
      "inputs": [
        {
          "internalType": "uint256",
          "name": "_tokenId",
          "type": "uint256"
        }
      ],
      "name": "ownerOf",
      "outputs": [
        {
          "internalType": "address",
          "name": "",
          "type": "address"
        }
      ],
      "stateMutability": "view",
      "type": "function"
    },
    {
      "inputs": [
        {
          "internalType": "uint256",
          "name": "_tokenId",
          "type": "uint256"
        }
      ],
      "name": "exists",
      "outputs": [
        {
          "internalType": "bool",
          "name": "",
          "type": "bool"
        }
      ],
      "stateMutability": "view",
      "type": "function"
    },
    {
      "inputs": [
        {
          "internalType": "address",
          "name": "_to",
          "type": "address"
        },
        {
          "internalType": "uint256",
          "name": "_tokenId",
          "type": "uint256"
        }
      ],
      "name": "approve",
      "outputs": [],
      "stateMutability": "nonpayable",
      "type": "function"
    },
    {
      "inputs": [
        {
          "internalType": "uint256",
          "name": "_tokenId",
          "type": "uint256"
        }
      ],
      "name": "getApproved",
      "outputs": [
        {
          "internalType": "address",
          "name": "",
          "type": "address"
        }
      ],
      "stateMutability": "view",
      "type": "function"
    },
    {
      "inputs": [
        {
          "internalType": "address",
          "name": "_to",
          "type": "address"
        },
        {
          "internalType": "bool",
          "name": "_approved",
          "type": "bool"
        }
      ],
      "name": "setApprovalForAll",
      "outputs": [],
      "stateMutability": "nonpayable",
      "type": "function"
    },
    {
      "inputs": [
        {
          "internalType": "address",
          "name": "_owner",
          "type": "address"
        },
        {
          "internalType": "address",
          "name": "_operator",
          "type": "address"
        }
      ],
      "name": "isApprovedForAll",
      "outputs": [
        {
          "internalType": "bool",
          "name": "",
          "type": "bool"
        }
      ],
      "stateMutability": "view",
      "type": "function"
    },
    {
      "inputs": [
        {
          "internalType": "address",
          "name": "_from",
          "type": "address"
        },
        {
          "internalType": "address",
          "name": "_to",
          "type": "address"
        },
        {
          "internalType": "uint256",
          "name": "_tokenId",
          "type": "uint256"
        }
      ],
      "name": "transferFrom",
      "outputs": [],
      "stateMutability": "nonpayable",
      "type": "function"
    },
    {
      "inputs": [
        {
          "internalType": "address",
          "name": "_from",
          "type": "address"
        },
        {
          "internalType": "address",
          "name": "_to",
          "type": "address"
        },
        {
          "internalType": "uint256",
          "name": "_tokenId",
          "type": "uint256"
        }
      ],
      "name": "safeTransferFrom",
      "outputs": [],
      "stateMutability": "nonpayable",
      "type": "function"
    },
    {
      "inputs": [
        {
          "internalType": "address",
          "name": "_from",
          "type": "address"
        },
        {
          "internalType": "address",
          "name": "_to",
          "type": "address"
        },
        {
          "internalType": "uint256",
          "name": "_tokenId",
          "type": "uint256"
        },
        {
          "internalType": "bytes",
          "name": "_data",
          "type": "bytes"
        }
      ],
      "name": "safeTransferFrom",
      "outputs": [],
      "stateMutability": "nonpayable",
      "type": "function"
    }
  ],
  "bytecode": "0x608060405234801561001057600080fd5b506112dc806100206000396000f3fe608060405234801561001057600080fd5b50600436106100bb576000357c0100000000000000000000000000000000000000000000000000000000900480636352211e116100835780636352211e1461029e57806370a082311461030c578063a22cb46514610364578063b88d4fde146103b4578063e985e9c5146104b9576100bb565b8063081812fc146100c0578063095ea7b31461012e57806323b872dd1461017c57806342842e0e146101ea5780634f558e7914610258575b600080fd5b6100ec600480360360208110156100d657600080fd5b8101908080359060200190929190505050610535565b604051808273ffffffffffffffffffffffffffffffffffffffff1673ffffffffffffffffffffffffffffffffffffffff16815260200191505060405180910390f35b61017a6004803603604081101561014457600080fd5b81019080803573ffffffffffffffffffffffffffffffffffffffff16906020019092919080359060200190929190505050610572565b005b6101e86004803603606081101561019257600080fd5b81019080803573ffffffffffffffffffffffffffffffffffffffff169060200190929190803573ffffffffffffffffffffffffffffffffffffffff16906020019092919080359060200190929190505050610734565b005b6102566004803603606081101561020057600080fd5b81019080803573ffffffffffffffffffffffffffffffffffffffff169060200190929190803573ffffffffffffffffffffffffffffffffffffffff16906020019092919080359060200190929190505050610845565b005b6102846004803603602081101561026e57600080fd5b810190808035906020019092919050505061087a565b604051808215151515815260200191505060405180910390f35b6102ca600480360360208110156102b457600080fd5b81019080803590602001909291905050506108eb565b604051808273ffffffffffffffffffffffffffffffffffffffff1673ffffffffffffffffffffffffffffffffffffffff16815260200191505060405180910390f35b61034e6004803603602081101561032257600080fd5b81019080803573ffffffffffffffffffffffffffffffffffffffff169060200190929190505050610966565b6040518082815260200191505060405180910390f35b6103b26004803603604081101561037a57600080fd5b81019080803573ffffffffffffffffffffffffffffffffffffffff1690602001909291908035151590602001909291905050506109e8565b005b6104b7600480360360808110156103ca57600080fd5b81019080803573ffffffffffffffffffffffffffffffffffffffff169060200190929190803573ffffffffffffffffffffffffffffffffffffffff169060200190929190803590602001909291908035906020019064010000000081111561043157600080fd5b82018360208201111561044357600080fd5b8035906020019184600183028401116401000000008311171561046557600080fd5b91908080601f016020809104026020016040519081016040528093929190818152602001838380828437600081840152601f19601f820116905080830192505050505050509192919290505050610b22565b005b61051b600480360360408110156104cf57600080fd5b81019080803573ffffffffffffffffffffffffffffffffffffffff169060200190929190803573ffffffffffffffffffffffffffffffffffffffff169060200190929190505050610b5d565b604051808215151515815260200191505060405180910390f35b60006001600083815260200190815260200160002060009054906101000a900473ffffffffffffffffffffffffffffffffffffffff169050919050565b600061057d826108eb565b90508073ffffffffffffffffffffffffffffffffffffffff168373ffffffffffffffffffffffffffffffffffffffff1614156105b857600080fd5b8073ffffffffffffffffffffffffffffffffffffffff163373ffffffffffffffffffffffffffffffffffffffff1614806105f857506105f78133610b5d565b5b61060157600080fd5b600073ffffffffffffffffffffffffffffffffffffffff1661062283610535565b73ffffffffffffffffffffffffffffffffffffffff161415806106725750600073ffffffffffffffffffffffffffffffffffffffff168373ffffffffffffffffffffffffffffffffffffffff1614155b1561072f57826001600084815260200190815260200160002060006101000a81548173ffffffffffffffffffffffffffffffffffffffff021916908373ffffffffffffffffffffffffffffffffffffffff1602179055508273ffffffffffffffffffffffffffffffffffffffff168173ffffffffffffffffffffffffffffffffffffffff167f8c5be1e5ebec7d5bd14f71427d1e84f3dd0314c0f7b2291e5b200ac8c7c3b925846040518082815260200191505060405180910390a35b505050565b8061073f3382610bf1565b61074857600080fd5b600073ffffffffffffffffffffffffffffffffffffffff168473ffffffffffffffffffffffffffffffffffffffff16141561078257600080fd5b600073ffffffffffffffffffffffffffffffffffffffff168373ffffffffffffffffffffffffffffffffffffffff1614156107bc57600080fd5b6107c68483610c86565b6107d08483610deb565b6107da8383610f17565b8273ffffffffffffffffffffffffffffffffffffffff168473ffffffffffffffffffffffffffffffffffffffff167fddf252ad1be2c89b69c2b068fc378daa952ba7f163c4a11628f55a4df523b3ef846040518082815260200191505060405180910390a350505050565b806108503382610bf1565b61085957600080fd5b61087484848460405180602001604052806000815250610b22565b50505050565b60008060008084815260200190815260200160002060009054906101000a900473ffffffffffffffffffffffffffffffffffffffff169050600073ffffffffffffffffffffffffffffffffffffffff168173ffffffffffffffffffffffffffffffffffffffff161415915050919050565b60008060008084815260200190815260200160002060009054906101000a900473ffffffffffffffffffffffffffffffffffffffff169050600073ffffffffffffffffffffffffffffffffffffffff168173ffffffffffffffffffffffffffffffffffffffff16141561095d57600080fd5b80915050919050565b60008073ffffffffffffffffffffffffffffffffffffffff168273ffffffffffffffffffffffffffffffffffffffff1614156109a157600080fd5b600260008373ffffffffffffffffffffffffffffffffffffffff1673ffffffffffffffffffffffffffffffffffffffff168152602001908152602001600020549050919050565b3373ffffffffffffffffffffffffffffffffffffffff168273ffffffffffffffffffffffffffffffffffffffff161415610a2157600080fd5b80600360003373ffffffffffffffffffffffffffffffffffffffff1673ffffffffffffffffffffffffffffffffffffffff16815260200190815260200160002060008473ffffffffffffffffffffffffffffffffffffffff1673ffffffffffffffffffffffffffffffffffffffff16815260200190815260200160002060006101000a81548160ff0219169083151502179055508173ffffffffffffffffffffffffffffffffffffffff163373ffffffffffffffffffffffffffffffffffffffff167f17307eab39ab6107e8899845ad3d59bd9653f200f220920489ca2b5937696c3183604051808215151515815260200191505060405180910390a35050565b81610b2d3382610bf1565b610b3657600080fd5b610b41858585610734565b610b4d8585858561106d565b610b5657600080fd5b5050505050565b6000600360008473ffffffffffffffffffffffffffffffffffffffff1673ffffffffffffffffffffffffffffffffffffffff16815260200190815260200160002060008373ffffffffffffffffffffffffffffffffffffffff1673ffffffffffffffffffffffffffffffffffffffff16815260200190815260200160002060009054906101000a900460ff16905092915050565b600080610bfd836108eb565b90508073ffffffffffffffffffffffffffffffffffffffff168473ffffffffffffffffffffffffffffffffffffffff161480610c6c57508373ffffffffffffffffffffffffffffffffffffffff16610c5484610535565b73ffffffffffffffffffffffffffffffffffffffff16145b80610c7d5750610c7c8185610b5d565b5b91505092915050565b8173ffffffffffffffffffffffffffffffffffffffff16610ca6826108eb565b73ffffffffffffffffffffffffffffffffffffffff1614610cc657600080fd5b600073ffffffffffffffffffffffffffffffffffffffff166001600083815260200190815260200160002060009054906101000a900473ffffffffffffffffffffffffffffffffffffffff1673ffffffffffffffffffffffffffffffffffffffff1614610de75760006001600083815260200190815260200160002060006101000a81548173ffffffffffffffffffffffffffffffffffffffff021916908373ffffffffffffffffffffffffffffffffffffffff160217905550600073ffffffffffffffffffffffffffffffffffffffff168273ffffffffffffffffffffffffffffffffffffffff167f8c5be1e5ebec7d5bd14f71427d1e84f3dd0314c0f7b2291e5b200ac8c7c3b925836040518082815260200191505060405180910390a35b5050565b8173ffffffffffffffffffffffffffffffffffffffff16610e0b826108eb565b73ffffffffffffffffffffffffffffffffffffffff1614610e2b57600080fd5b610e7e6001600260008573ffffffffffffffffffffffffffffffffffffffff1673ffffffffffffffffffffffffffffffffffffffff1681526020019081526020016000205461125a90919063ffffffff16565b600260008473ffffffffffffffffffffffffffffffffffffffff1673ffffffffffffffffffffffffffffffffffffffff16815260200190815260200160002081905550600080600083815260200190815260200160002060006101000a81548173ffffffffffffffffffffffffffffffffffffffff021916908373ffffffffffffffffffffffffffffffffffffffff1602179055505050565b600073ffffffffffffffffffffffffffffffffffffffff1660008083815260200190815260200160002060009054906101000a900473ffffffffffffffffffffffffffffffffffffffff1673ffffffffffffffffffffffffffffffffffffffff1614610f8257600080fd5b8160008083815260200190815260200160002060006101000a81548173ffffffffffffffffffffffffffffffffffffffff021916908373ffffffffffffffffffffffffffffffffffffffff1602179055506110266001600260008573ffffffffffffffffffffffffffffffffffffffff1673ffffffffffffffffffffffffffffffffffffffff1681526020019081526020016000205461127190919063ffffffff16565b600260008473ffffffffffffffffffffffffffffffffffffffff1673ffffffffffffffffffffffffffffffffffffffff168152602001908152602001600020819055505050565b600061108e8473ffffffffffffffffffffffffffffffffffffffff1661128d565b61109b5760019050611252565b60008473ffffffffffffffffffffffffffffffffffffffff1663f0b9e5ba8786866040518463ffffffff167c0100000000000000000000000000000000000000000000000000000000028152600401808473ffffffffffffffffffffffffffffffffffffffff1673ffffffffffffffffffffffffffffffffffffffff16815260200183815260200180602001828103825283818151815260200191508051906020019080838360005b8381101561115f578082015181840152602081019050611144565b50505050905090810190601f16801561118c5780820380516001836020036101000a031916815260200191505b50945050505050602060405180830381600087803b1580156111ad57600080fd5b505af11580156111c1573d6000803e3d6000fd5b505050506040513d60208110156111d757600080fd5b8101908080519060200190929190505050905063f0b9e5ba7c0100000000000000000000000000000000000000000000000000000000027bffffffffffffffffffffffffffffffffffffffffffffffffffffffff1916817bffffffffffffffffffffffffffffffffffffffffffffffffffffffff1916149150505b949350505050565b60008282111561126657fe5b818303905092915050565b60008082840190508381101561128357fe5b8091505092915050565b600080823b905060008163ffffffff161191505091905056fea2646970667358221220c3bbf359c455529711a39a1b38923df049e46e1a0453683397898e77863e468a64736f6c63430006040033",
  "source": "pragma solidity ^0.6.4;\n\nimport \"./ERC721Basic.sol\";\nimport \"./ERC721Receiver.sol\";\nimport \"../utils/math/SafeMath.sol\";\nimport \"../utils/AddressUtils.sol\";\n\n\n/**\n * @title ERC721 Non-Fungible Token Standard basic implementation\n * @dev see https://github.com/ethereum/EIPs/blob/master/EIPS/eip-721.md\n */\ncontract ERC721BasicToken is ERC721Basic {\n    using SafeMath for uint256;\n    using AddressUtils for address;\n\n    // Equals to `bytes4(keccak256(\"onERC721Received(address,uint256,bytes)\"))`\n    // which can be also obtained as `ERC721Receiver(0).onERC721Received.selector`\n    bytes4 constant ERC721_RECEIVED = 0xf0b9e5ba;\n\n    // Mapping from token ID to owner\n    mapping(uint256 => address) internal tokenOwner;\n\n    // Mapping from token ID to approved address\n    mapping(uint256 => address) internal tokenApprovals;\n\n    // Mapping from owner to number of owned token\n    mapping(address => uint256) internal ownedTokensCount;\n\n    // Mapping from owner to operator approvals\n    mapping(address => mapping(address => bool)) internal operatorApprovals;\n\n    /**\n     * @dev Guarantees msg.sender is owner of the given token\n     * @param _tokenId uint256 ID of the token to validate its ownership belongs to msg.sender\n     */\n    modifier onlyOwnerOf(uint256 _tokenId) {\n        require(ownerOf(_tokenId) == msg.sender);\n        _;\n    }\n\n    /**\n     * @dev Checks msg.sender can transfer a token, by being owner, approved, or operator\n     * @param _tokenId uint256 ID of the token to validate\n     */\n    modifier canTransfer(uint256 _tokenId) {\n        require(isApprovedOrOwner(msg.sender, _tokenId));\n        _;\n    }\n\n    /**\n     * @dev Gets the balance of the specified address\n     * @param _owner address to query the balance of\n     * @return uint256 representing the amount owned by the passed address\n     */\n    function balanceOf(address _owner) public override view returns (uint256) {\n        require(_owner != address(0));\n        return ownedTokensCount[_owner];\n    }\n\n    /**\n     * @dev Gets the owner of the specified token ID\n     * @param _tokenId uint256 ID of the token to query the owner of\n     * @return owner address currently marked as the owner of the given token ID\n     */\n    function ownerOf(uint256 _tokenId) public view override returns (address) {\n        address owner = tokenOwner[_tokenId];\n        require(owner != address(0));\n        return owner;\n    }\n\n    /**\n     * @dev Returns whether the specified token exists\n     * @param _tokenId uint256 ID of the token to query the existance of\n     * @return whether the token exists\n     */\n    function exists(uint256 _tokenId) public view override returns (bool) {\n        address owner = tokenOwner[_tokenId];\n        return owner != address(0);\n    }\n\n    /**\n     * @dev Approves another address to transfer the given token ID\n     * @dev The zero address indicates there is no approved address.\n     * @dev There can only be one approved address per token at a given time.\n     * @dev Can only be called by the token owner or an approved operator.\n     * @param _to address to be approved for the given token ID\n     * @param _tokenId uint256 ID of the token to be approved\n     */\n    function approve(address _to, uint256 _tokenId) public override {\n        address owner = ownerOf(_tokenId);\n        require(_to != owner);\n        require(msg.sender == owner || isApprovedForAll(owner, msg.sender));\n\n        if (getApproved(_tokenId) != address(0) || _to != address(0)) {\n            tokenApprovals[_tokenId] = _to;\n            emit Approval(owner, _to, _tokenId);\n        }\n    }\n\n    /**\n     * @dev Gets the approved address for a token ID, or zero if no address set\n     * @param _tokenId uint256 ID of the token to query the approval of\n     * @return address currently approved for a the given token ID\n     */\n    function getApproved(uint256 _tokenId) public view override returns (address) {\n        return tokenApprovals[_tokenId];\n    }\n\n    /**\n     * @dev Sets or unsets the approval of a given operator\n     * @dev An operator is allowed to transfer all tokens of the sender on their behalf\n     * @param _to operator address to set the approval\n     * @param _approved representing the status of the approval to be set\n     */\n    function setApprovalForAll(address _to, bool _approved)  public override {\n        require(_to != msg.sender);\n        operatorApprovals[msg.sender][_to] = _approved;\n        emit ApprovalForAll(msg.sender, _to, _approved);\n    }\n\n    /**\n     * @dev Tells whether an operator is approved by a given owner\n     * @param _owner owner address which you want to query the approval of\n     * @param _operator operator address which you want to query the approval of\n     * @return bool whether the given operator is approved by the given owner\n     */\n    function isApprovedForAll(address _owner, address _operator)\n        public\n        view\n        override\n        returns (bool)\n    {\n        return operatorApprovals[_owner][_operator];\n    }\n\n    /**\n     * @dev Transfers the ownership of a given token ID to another address\n     * @dev Usage of this method is discouraged, use `safeTransferFrom` whenever possible\n     * @dev Requires the msg sender to be the owner, approved, or operator\n     * @param _from current owner of the token\n     * @param _to address to receive the ownership of the given token ID\n     * @param _tokenId uint256 ID of the token to be transferred\n     */\n    function transferFrom(address _from, address _to, uint256 _tokenId)\n        public\n        override\n        canTransfer(_tokenId)\n    {\n        require(_from != address(0));\n        require(_to != address(0));\n\n        clearApproval(_from, _tokenId);\n        removeTokenFrom(_from, _tokenId);\n        addTokenTo(_to, _tokenId);\n\n        emit Transfer(_from, _to, _tokenId);\n    }\n\n    /**\n     * @dev Safely transfers the ownership of a given token ID to another address\n     * @dev If the target address is a contract, it must implement `onERC721Received`,\n     *  which is called upon a safe transfer, and return the magic value\n     *  `bytes4(keccak256(\"onERC721Received(address,uint256,bytes)\"))`; otherwise,\n     *  the transfer is reverted.\n     * @dev Requires the msg sender to be the owner, approved, or operator\n     * @param _from current owner of the token\n     * @param _to address to receive the ownership of the given token ID\n     * @param _tokenId uint256 ID of the token to be transferred\n     */\n    function safeTransferFrom(address _from, address _to, uint256 _tokenId)\n        public\n        override\n        canTransfer(_tokenId)\n    {\n        safeTransferFrom(_from, _to, _tokenId, \"\");\n    }\n\n    /**\n     * @dev Safely transfers the ownership of a given token ID to another address\n     * @dev If the target address is a contract, it must implement `onERC721Received`,\n     *  which is called upon a safe transfer, and return the magic value\n     *  `bytes4(keccak256(\"onERC721Received(address,uint256,bytes)\"))`; otherwise,\n     *  the transfer is reverted.\n     * @dev Requires the msg sender to be the owner, approved, or operator\n     * @param _from current owner of the token\n     * @param _to address to receive the ownership of the given token ID\n     * @param _tokenId uint256 ID of the token to be transferred\n     * @param _data bytes data to send along with a safe transfer check\n     */\n    function safeTransferFrom(\n        address _from,\n        address _to,\n        uint256 _tokenId,\n        bytes memory _data\n    ) public override canTransfer(_tokenId) {\n        transferFrom(_from, _to, _tokenId);\n        require(checkAndCallSafeTransfer(_from, _to, _tokenId, _data));\n    }\n\n    /**\n     * @dev Returns whether the given spender can transfer a given token ID\n     * @param _spender address of the spender to query\n     * @param _tokenId uint256 ID of the token to be transferred\n     * @return bool whether the msg.sender is approved for the given token ID,\n     *  is an operator of the owner, or is the owner of the token\n     */\n    function isApprovedOrOwner(address _spender, uint256 _tokenId)\n        internal\n        view\n        returns (bool)\n    {\n        address owner = ownerOf(_tokenId);\n        return\n            _spender == owner ||\n            getApproved(_tokenId) == _spender ||\n            isApprovedForAll(owner, _spender);\n    }\n\n    /**\n     * @dev Internal function to mint a new token\n     * @dev Reverts if the given token ID already exists\n     * @param _to The address that will own the minted token\n     * @param _tokenId uint256 ID of the token to be minted by the msg.sender\n     */\n    function _mint(address _to, uint256 _tokenId) internal virtual {\n        require(_to != address(0));\n        addTokenTo(_to, _tokenId);\n        Transfer(address(0), _to, _tokenId);\n    }\n\n    /**\n     * @dev Internal function to burn a specific token\n     * @dev Reverts if the token does not exist\n     * @param _tokenId uint256 ID of the token being burned by the msg.sender\n     */\n    function _burn(address _owner, uint256 _tokenId) internal virtual {\n        clearApproval(_owner, _tokenId);\n        removeTokenFrom(_owner, _tokenId);\n        emit Transfer(_owner, address(0), _tokenId);\n    }\n\n    /**\n     * @dev Internal function to clear current approval of a given token ID\n     * @dev Reverts if the given address is not indeed the owner of the token\n     * @param _owner owner of the token\n     * @param _tokenId uint256 ID of the token to be transferred\n     */\n    function clearApproval(address _owner, uint256 _tokenId) internal {\n        require(ownerOf(_tokenId) == _owner);\n        if (tokenApprovals[_tokenId] != address(0)) {\n            tokenApprovals[_tokenId] = address(0);\n            emit Approval(_owner, address(0), _tokenId);\n        }\n    }\n\n    /**\n     * @dev Internal function to add a token ID to the list of a given address\n     * @param _to address representing the new owner of the given token ID\n     * @param _tokenId uint256 ID of the token to be added to the tokens list of the given address\n     */\n    function addTokenTo(address _to, uint256 _tokenId) internal virtual {\n        require(tokenOwner[_tokenId] == address(0));\n        tokenOwner[_tokenId] = _to;\n        ownedTokensCount[_to] = ownedTokensCount[_to].add(1);\n    }\n\n    /**\n     * @dev Internal function to remove a token ID from the list of a given address\n     * @param _from address representing the previous owner of the given token ID\n     * @param _tokenId uint256 ID of the token to be removed from the tokens list of the given address\n     */\n    function removeTokenFrom(address _from, uint256 _tokenId) internal virtual {\n        require(ownerOf(_tokenId) == _from);\n        ownedTokensCount[_from] = ownedTokensCount[_from].sub(1);\n        tokenOwner[_tokenId] = address(0);\n    }\n\n    /**\n     * @dev Internal function to invoke `onERC721Received` on a target address\n     * @dev The call is not executed if the target address is not a contract\n     * @param _from address representing the previous owner of the given token ID\n     * @param _to target address that will receive the tokens\n     * @param _tokenId uint256 ID of the token to be transferred\n     * @param _data bytes optional data to send along with the call\n     * @return whether the call correctly returned the expected magic value\n     */\n    function checkAndCallSafeTransfer(\n        address _from,\n        address _to,\n        uint256 _tokenId,\n        bytes memory _data\n    ) internal returns (bool) {\n        if (!_to.isContract()) {\n            return true;\n        }\n        bytes4 retval = ERC721Receiver(_to).onERC721Received(\n            _from,\n            _tokenId,\n            _data\n        );\n        return (retval == ERC721_RECEIVED);\n    }\n}\n",
  "sourcePath": "/Users/Devesh/Desktop/auctionApp/backend/contracts/ERC721/ERC721BasicToken.sol",
  "compiler": {
    "name": "solc",
    "version": "0.6.4+commit.1dca32f3.Emscripten.clang"
  },
  "schemaVersion": "3.1.0",
  "updatedAt": "2020-05-04T09:11:18.834Z",
  "devdoc": {
    "details": "see https://github.com/ethereum/EIPs/blob/master/EIPS/eip-721.md",
    "methods": {
      "approve(address,uint256)": {
        "details": "Approves another address to transfer the given token IDThe zero address indicates there is no approved address.There can only be one approved address per token at a given time.Can only be called by the token owner or an approved operator.",
        "params": {
          "_to": "address to be approved for the given token ID",
          "_tokenId": "uint256 ID of the token to be approved"
        }
      },
      "balanceOf(address)": {
        "details": "Gets the balance of the specified address",
        "params": {
          "_owner": "address to query the balance of"
        },
        "returns": {
          "_0": "uint256 representing the amount owned by the passed address"
        }
      },
      "exists(uint256)": {
        "details": "Returns whether the specified token exists",
        "params": {
          "_tokenId": "uint256 ID of the token to query the existance of"
        },
        "returns": {
          "_0": "whether the token exists"
        }
      },
      "getApproved(uint256)": {
        "details": "Gets the approved address for a token ID, or zero if no address set",
        "params": {
          "_tokenId": "uint256 ID of the token to query the approval of"
        },
        "returns": {
          "_0": "address currently approved for a the given token ID"
        }
      },
      "isApprovedForAll(address,address)": {
        "details": "Tells whether an operator is approved by a given owner",
        "params": {
          "_operator": "operator address which you want to query the approval of",
          "_owner": "owner address which you want to query the approval of"
        },
        "returns": {
          "_0": "bool whether the given operator is approved by the given owner"
        }
      },
      "ownerOf(uint256)": {
        "details": "Gets the owner of the specified token ID",
        "params": {
          "_tokenId": "uint256 ID of the token to query the owner of"
        },
        "returns": {
          "_0": "owner address currently marked as the owner of the given token ID"
        }
      },
      "safeTransferFrom(address,address,uint256)": {
        "details": "Safely transfers the ownership of a given token ID to another addressIf the target address is a contract, it must implement `onERC721Received`, which is called upon a safe transfer, and return the magic value `bytes4(keccak256(\"onERC721Received(address,uint256,bytes)\"))`; otherwise, the transfer is reverted.Requires the msg sender to be the owner, approved, or operator",
        "params": {
          "_from": "current owner of the token",
          "_to": "address to receive the ownership of the given token ID",
          "_tokenId": "uint256 ID of the token to be transferred"
        }
      },
      "safeTransferFrom(address,address,uint256,bytes)": {
        "details": "Safely transfers the ownership of a given token ID to another addressIf the target address is a contract, it must implement `onERC721Received`, which is called upon a safe transfer, and return the magic value `bytes4(keccak256(\"onERC721Received(address,uint256,bytes)\"))`; otherwise, the transfer is reverted.Requires the msg sender to be the owner, approved, or operator",
        "params": {
          "_data": "bytes data to send along with a safe transfer check",
          "_from": "current owner of the token",
          "_to": "address to receive the ownership of the given token ID",
          "_tokenId": "uint256 ID of the token to be transferred"
        }
      },
      "setApprovalForAll(address,bool)": {
        "details": "Sets or unsets the approval of a given operatorAn operator is allowed to transfer all tokens of the sender on their behalf",
        "params": {
          "_approved": "representing the status of the approval to be set",
          "_to": "operator address to set the approval"
        }
      },
      "transferFrom(address,address,uint256)": {
        "details": "Transfers the ownership of a given token ID to another addressUsage of this method is discouraged, use `safeTransferFrom` whenever possibleRequires the msg sender to be the owner, approved, or operator",
        "params": {
          "_from": "current owner of the token",
          "_to": "address to receive the ownership of the given token ID",
          "_tokenId": "uint256 ID of the token to be transferred"
        }
      }
    },
    "title": "ERC721 Non-Fungible Token Standard basic implementation"
  },
  "userdoc": {
    "methods": {}
  }
}